{
  "contractName": "ERCXXXXReceiverDelegate",
  "abi": [
    {
      "constant": true,
      "inputs": [],
      "name": "shouldReject",
      "outputs": [
        {
          "name": "",
          "type": "bool"
        }
      ],
      "payable": false,
      "stateMutability": "view",
      "type": "function"
    },
    {
      "constant": true,
      "inputs": [],
      "name": "shouldRejectXXXX",
      "outputs": [
        {
          "name": "",
          "type": "bool"
        }
      ],
      "payable": false,
      "stateMutability": "view",
      "type": "function"
    },
    {
      "constant": true,
      "inputs": [
        {
          "name": "",
          "type": "bytes4"
        }
      ],
      "name": "delegates",
      "outputs": [
        {
          "name": "",
          "type": "address"
        }
      ],
      "payable": false,
      "stateMutability": "view",
      "type": "function"
    },
    {
      "constant": true,
      "inputs": [],
      "name": "NOT_ERCXXXX_RECEIVED",
      "outputs": [
        {
          "name": "",
          "type": "bytes4"
        }
      ],
      "payable": false,
      "stateMutability": "view",
      "type": "function"
    },
    {
      "constant": true,
      "inputs": [],
      "name": "ERCXXXX_RECEIVED",
      "outputs": [
        {
          "name": "",
          "type": "bytes4"
        }
      ],
      "payable": false,
      "stateMutability": "view",
      "type": "function"
    },
    {
      "constant": true,
      "inputs": [],
      "name": "ERCXXXX_BATCH_RECEIVED",
      "outputs": [
        {
          "name": "",
          "type": "bytes4"
        }
      ],
      "payable": false,
      "stateMutability": "view",
      "type": "function"
    },
    {
      "constant": false,
      "inputs": [
        {
          "name": "_value",
          "type": "bool"
        }
      ],
      "name": "setShouldRejectClash",
      "outputs": [],
      "payable": false,
      "stateMutability": "nonpayable",
      "type": "function"
    },
    {
      "constant": false,
      "inputs": [
        {
          "name": "_value",
          "type": "bool"
        }
      ],
      "name": "setShouldRejectXXXX",
      "outputs": [],
      "payable": false,
      "stateMutability": "nonpayable",
      "type": "function"
    },
    {
      "constant": true,
      "inputs": [
        {
          "name": "_operator",
          "type": "address"
        },
        {
          "name": "_from",
          "type": "address"
        },
        {
          "name": "_id",
          "type": "uint256"
        },
        {
          "name": "_value",
          "type": "uint256"
        },
        {
          "name": "_data",
          "type": "bytes"
        }
      ],
      "name": "onERCXXXXReceived",
      "outputs": [
        {
          "name": "",
          "type": "bytes4"
        }
      ],
      "payable": false,
      "stateMutability": "view",
      "type": "function"
    },
    {
      "constant": true,
      "inputs": [
        {
          "name": "_operator",
          "type": "address"
        },
        {
          "name": "_from",
          "type": "address"
        },
        {
          "name": "_ids",
          "type": "uint256[]"
        },
        {
          "name": "_values",
          "type": "uint256[]"
        },
        {
          "name": "_data",
          "type": "bytes"
        }
      ],
      "name": "onERCXXXXBatchReceived",
      "outputs": [
        {
          "name": "",
          "type": "bytes4"
        }
      ],
      "payable": false,
      "stateMutability": "view",
      "type": "function"
    }
  ],
  "bytecode": "0x608060405234801561001057600080fd5b50610a38806100206000396000f3fe608060405234801561001057600080fd5b506004361061009e5760003560e01c8063b689697f11610066578063b689697f146101d4578063b766c37914610230578063e9e5be6a1461028c578063eb510be814610441578063ffbd487d146105605761009e565b80631dbb9381146100a35780632090dd24146100c557806380f5fe74146100f557806391ad57bd14610125578063a0a2daf014610147575b600080fd5b6100ab6105bc565b604051808215151515815260200191505060405180910390f35b6100f3600480360360208110156100db57600080fd5b810190808035151590602001909291905050506105cf565b005b6101236004803603602081101561010b57600080fd5b81019080803515159060200190929190505050610692565b005b61012d610772565b604051808215151515815260200191505060405180910390f35b6101926004803603602081101561015d57600080fd5b8101908080357bffffffffffffffffffffffffffffffffffffffffffffffffffffffff19169060200190929190505050610785565b604051808273ffffffffffffffffffffffffffffffffffffffff1673ffffffffffffffffffffffffffffffffffffffff16815260200191505060405180910390f35b6101dc6107b8565b60405180827bffffffffffffffffffffffffffffffffffffffffffffffffffffffff19167bffffffffffffffffffffffffffffffffffffffffffffffffffffffff1916815260200191505060405180910390f35b6102386107c3565b60405180827bffffffffffffffffffffffffffffffffffffffffffffffffffffffff19167bffffffffffffffffffffffffffffffffffffffffffffffffffffffff1916815260200191505060405180910390f35b6103ed600480360360a08110156102a257600080fd5b81019080803573ffffffffffffffffffffffffffffffffffffffff169060200190929190803573ffffffffffffffffffffffffffffffffffffffff169060200190929190803590602001906401000000008111156102ff57600080fd5b82018360208201111561031157600080fd5b8035906020019184602083028401116401000000008311171561033357600080fd5b90919293919293908035906020019064010000000081111561035457600080fd5b82018360208201111561036657600080fd5b8035906020019184602083028401116401000000008311171561038857600080fd5b9091929391929390803590602001906401000000008111156103a957600080fd5b8201836020820111156103bb57600080fd5b803590602001918460018302840111640100000000831117156103dd57600080fd5b90919293919293905050506107ce565b60405180827bffffffffffffffffffffffffffffffffffffffffffffffffffffffff19167bffffffffffffffffffffffffffffffffffffffffffffffffffffffff1916815260200191505060405180910390f35b61050c600480360360a081101561045757600080fd5b81019080803573ffffffffffffffffffffffffffffffffffffffff169060200190929190803573ffffffffffffffffffffffffffffffffffffffff1690602001909291908035906020019092919080359060200190929190803590602001906401000000008111156104c857600080fd5b8201836020820111156104da57600080fd5b803590602001918460018302840111640100000000831117156104fc57600080fd5b90919293919293905050506108b8565b60405180827bffffffffffffffffffffffffffffffffffffffffffffffffffffffff19167bffffffffffffffffffffffffffffffffffffffffffffffffffffffff1916815260200191505060405180910390f35b6105686109bd565b60405180827bffffffffffffffffffffffffffffffffffffffffffffffffffffffff19167bffffffffffffffffffffffffffffffffffffffffffffffffffffffff1916815260200191505060405180910390f35b600360149054906101000a900460ff1681565b600360009054906101000a900473ffffffffffffffffffffffffffffffffffffffff1673ffffffffffffffffffffffffffffffffffffffff163073ffffffffffffffffffffffffffffffffffffffff1614610675576040517f08c379a00000000000000000000000000000000000000000000000000000000081526004018080602001828103825260218152602001806109c96021913960400191505060405180910390fd5b80600360146101000a81548160ff02191690831515021790555050565b600360009054906101000a900473ffffffffffffffffffffffffffffffffffffffff1673ffffffffffffffffffffffffffffffffffffffff163073ffffffffffffffffffffffffffffffffffffffff1614610755576040517f08c379a00000000000000000000000000000000000000000000000000000000081526004018080602001828103825260208152602001807f4469726563742063616c6c3a2073657453686f756c6452656a6563745858585881525060200191505060405180910390fd5b80600360156101000a81548160ff02191690831515021790555050565b600360159054906101000a900460ff1681565b60006020528060005260406000206000915054906101000a900473ffffffffffffffffffffffffffffffffffffffff1681565b63deadf00d60e01b81565b631234aaaa60e01b81565b6000600360009054906101000a900473ffffffffffffffffffffffffffffffffffffffff1673ffffffffffffffffffffffffffffffffffffffff163073ffffffffffffffffffffffffffffffffffffffff1614610876576040517f08c379a00000000000000000000000000000000000000000000000000000000081526004018080602001828103825260238152602001806109ea6023913960400191505060405180910390fd5b60011515600360159054906101000a900460ff16151514156108a15763deadf00d60e01b90506108ac565b634321bbbb60e01b90505b98975050505050505050565b6000600360009054906101000a900473ffffffffffffffffffffffffffffffffffffffff1673ffffffffffffffffffffffffffffffffffffffff163073ffffffffffffffffffffffffffffffffffffffff161461097d576040517f08c379a000000000000000000000000000000000000000000000000000000000815260040180806020018281038252601e8152602001807f4469726563742063616c6c3a206f6e455243585858585265636569766564000081525060200191505060405180910390fd5b60011515600360159054906101000a900460ff16151514156109a85763deadf00d60e01b90506109b3565b631234aaaa60e01b90505b9695505050505050565b634321bbbb60e01b8156fe4469726563742063616c6c3a2073657453686f756c6452656a656374436c6173684469726563742063616c6c3a206f6e4552435858585842617463685265636569766564a165627a7a7230582075134bf877e614e0ea065a10c1ae2e625e6ca841e3b75e5cd894ea1b1c7b163a0029",
  "source": "pragma solidity ^0.5.0;\r\n\r\nimport \"./DelegatesStorage.sol\";\r\n\r\n///////////////////////////////////////////////////////////////////////////////////////////////////\r\n/**\r\n * @title ERCXXXXReceiverDelegate\r\n * @dev Contract to test safe transfer behavior via proxy with future standard delegate.\r\n */\r\n///////////////////////////////////////////////////////////////////////////////////////////////////\r\n\r\ncontract ERCXXXXReceiverDelegate is ProxyReceiverStorage_002_ERCXXXXFuture {\r\n\r\n    bytes4 constant public ERCXXXX_RECEIVED = 0x1234AAAA;\r\n    bytes4 constant public ERCXXXX_BATCH_RECEIVED = 0x4321BBBB;\r\n    bytes4 constant public NOT_ERCXXXX_RECEIVED = 0xDEADF00D; // Some random value\r\n\r\n    function setShouldRejectClash(bool _value) external {\r\n        require(address(this) == proxy, \"Direct call: setShouldRejectClash\");\r\n\r\n        shouldReject = _value;\r\n    }\r\n\r\n    function setShouldRejectXXXX(bool _value) external {\r\n        require(address(this) == proxy, \"Direct call: setShouldRejectXXXX\");\r\n\r\n        shouldRejectXXXX = _value;\r\n    }\r\n\r\n    function onERCXXXXReceived(address _operator, address _from, uint256 _id, uint256 _value, bytes calldata _data) external view returns(bytes4) {\r\n        (_operator); (_from); (_id); (_value); (_data);  // solidity, be quiet please\r\n\r\n        require(address(this) == proxy, \"Direct call: onERCXXXXReceived\");\r\n\r\n        if (shouldRejectXXXX == true) {\r\n            return NOT_ERCXXXX_RECEIVED;\r\n        } else {\r\n            return ERCXXXX_RECEIVED;\r\n        }\r\n    }\r\n\r\n    function onERCXXXXBatchReceived(address _operator, address _from, uint256[] calldata _ids, uint256[] calldata _values, bytes calldata _data) external view returns(bytes4) {\r\n        (_operator); (_from); (_ids); (_values); (_data);  // solidity, be quiet please\r\n\r\n        require(address(this) == proxy, \"Direct call: onERCXXXXBatchReceived\");\r\n\r\n        if (shouldRejectXXXX == true) {\r\n            return NOT_ERCXXXX_RECEIVED;\r\n        } else {\r\n            return ERCXXXX_BATCH_RECEIVED;\r\n        }\r\n    }\r\n}\r\n",
  "sourcePath": "C:/Users/phangjunyu/desktop/fyp/solidity/contracts/ProxyReceiver/Delegates/ERCXXXXReceiverDelegate.sol",
  "compiler": {
    "name": "solc",
    "version": "0.5.8+commit.23d335f2.Emscripten.clang"
  },
  "schemaVersion": "3.0.16",
  "updatedAt": "2019-10-07T07:12:16.536Z",
  "devdoc": {
    "methods": {}
  },
  "userdoc": {
    "methods": {},
    "notice": "////////////////////////////////////////////////////////////////////////////////////////////////"
  }
}