{
  "contractName": "FileManagement",
  "abi": [
    {
      "anonymous": false,
      "inputs": [
        {
          "indexed": true,
          "name": "_owner",
          "type": "address"
        },
        {
          "indexed": true,
          "name": "_fileHash",
          "type": "uint256"
        }
      ],
      "name": "NewFile",
      "type": "event"
    },
    {
      "anonymous": false,
      "inputs": [
        {
          "indexed": true,
          "name": "_user",
          "type": "address"
        },
        {
          "indexed": true,
          "name": "_fileHash",
          "type": "uint256"
        },
        {
          "indexed": false,
          "name": "expiryTime",
          "type": "uint256"
        }
      ],
      "name": "ReadPermissionGranted",
      "type": "event"
    },
    {
      "anonymous": false,
      "inputs": [
        {
          "indexed": true,
          "name": "_user",
          "type": "address"
        },
        {
          "indexed": true,
          "name": "_fileHash",
          "type": "uint256"
        },
        {
          "indexed": false,
          "name": "expiryTime",
          "type": "uint256"
        }
      ],
      "name": "WritePermissionGranted",
      "type": "event"
    },
    {
      "anonymous": false,
      "inputs": [
        {
          "indexed": true,
          "name": "_user",
          "type": "address"
        },
        {
          "indexed": true,
          "name": "_fileHash",
          "type": "uint256"
        },
        {
          "indexed": false,
          "name": "expiryTime",
          "type": "uint256"
        }
      ],
      "name": "OwnerPermissionGranted",
      "type": "event"
    },
    {
      "anonymous": false,
      "inputs": [
        {
          "indexed": true,
          "name": "_user",
          "type": "address"
        },
        {
          "indexed": true,
          "name": "_fileHash",
          "type": "uint256"
        },
        {
          "indexed": false,
          "name": "new_fileHash",
          "type": "uint256"
        }
      ],
      "name": "FileUpdated",
      "type": "event"
    },
    {
      "constant": false,
      "inputs": [
        {
          "name": "_fileHash",
          "type": "uint256"
        },
        {
          "name": "_location",
          "type": "string"
        }
      ],
      "name": "newFile",
      "outputs": [],
      "payable": false,
      "stateMutability": "nonpayable",
      "type": "function"
    },
    {
      "constant": false,
      "inputs": [
        {
          "name": "_fileHash",
          "type": "uint256"
        },
        {
          "name": "_users",
          "type": "address[]"
        },
        {
          "name": "_duration",
          "type": "uint256"
        }
      ],
      "name": "setReadPermissions",
      "outputs": [],
      "payable": false,
      "stateMutability": "nonpayable",
      "type": "function"
    },
    {
      "constant": false,
      "inputs": [
        {
          "name": "_fileHash",
          "type": "uint256"
        },
        {
          "name": "_users",
          "type": "address[]"
        },
        {
          "name": "_duration",
          "type": "uint256"
        }
      ],
      "name": "setWritePermissions",
      "outputs": [],
      "payable": false,
      "stateMutability": "nonpayable",
      "type": "function"
    },
    {
      "constant": false,
      "inputs": [
        {
          "name": "_fileHash",
          "type": "uint256"
        },
        {
          "name": "_users",
          "type": "address[]"
        },
        {
          "name": "_duration",
          "type": "uint256"
        }
      ],
      "name": "setOwnerPermissions",
      "outputs": [],
      "payable": false,
      "stateMutability": "nonpayable",
      "type": "function"
    },
    {
      "constant": false,
      "inputs": [
        {
          "name": "_fileHash",
          "type": "uint256"
        },
        {
          "name": "new_fileHash",
          "type": "uint256"
        },
        {
          "name": "new_location",
          "type": "string"
        }
      ],
      "name": "updateFile",
      "outputs": [],
      "payable": false,
      "stateMutability": "nonpayable",
      "type": "function"
    },
    {
      "constant": true,
      "inputs": [
        {
          "name": "_fileHash",
          "type": "uint256"
        }
      ],
      "name": "viewUsersOfFile",
      "outputs": [
        {
          "name": "",
          "type": "address[]"
        }
      ],
      "payable": false,
      "stateMutability": "view",
      "type": "function"
    },
    {
      "constant": true,
      "inputs": [
        {
          "name": "_fileHash",
          "type": "uint256"
        },
        {
          "name": "_user",
          "type": "address"
        }
      ],
      "name": "viewFilePermissionsForUser",
      "outputs": [
        {
          "name": "",
          "type": "uint8"
        }
      ],
      "payable": false,
      "stateMutability": "view",
      "type": "function"
    },
    {
      "constant": true,
      "inputs": [
        {
          "name": "_fileHash",
          "type": "uint256"
        }
      ],
      "name": "viewUpdaterHistory",
      "outputs": [
        {
          "name": "",
          "type": "address[]"
        }
      ],
      "payable": false,
      "stateMutability": "view",
      "type": "function"
    },
    {
      "constant": true,
      "inputs": [
        {
          "name": "_fileHash",
          "type": "uint256"
        }
      ],
      "name": "verifyDocument",
      "outputs": [],
      "payable": false,
      "stateMutability": "view",
      "type": "function"
    },
    {
      "constant": true,
      "inputs": [
        {
          "name": "_fileHash",
          "type": "uint256"
        }
      ],
      "name": "viewFile",
      "outputs": [
        {
          "name": "",
          "type": "uint256"
        },
        {
          "name": "",
          "type": "string"
        },
        {
          "name": "",
          "type": "address"
        }
      ],
      "payable": false,
      "stateMutability": "view",
      "type": "function"
    }
  ],
  "bytecode": "0x608060405234801561001057600080fd5b50612d94806100206000396000f3fe608060405234801561001057600080fd5b506004361061009e5760003560e01c8063702a2ae911610066578063702a2ae9146102f1578063af36062314610374578063bbef8ae014610401578063c5803e10146104e2578063f8d1dcd81461056f5761009e565b8063219b3209146100a3578063289eb402146101305780635c2572a0146101bd5780636dda61d9146102405780636e1dc8501461026e575b600080fd5b61012e600480360360608110156100b957600080fd5b810190808035906020019092919080359060200190929190803590602001906401000000008111156100ea57600080fd5b8201836020820111156100fc57600080fd5b8035906020019184600183028401116401000000008311171561011e57600080fd5b90919293919293905050506105df565b005b6101bb6004803603606081101561014657600080fd5b81019080803590602001909291908035906020019064010000000081111561016d57600080fd5b82018360208201111561017f57600080fd5b803590602001918460208302840111640100000000831117156101a157600080fd5b909192939192939080359060200190929190505050610ba3565b005b6101e9600480360360208110156101d357600080fd5b8101908080359060200190929190505050610f7e565b6040518080602001828103825283818151815260200191508051906020019060200280838360005b8381101561022c578082015181840152602081019050610211565b505050509050019250505060405180910390f35b61026c6004803603602081101561025657600080fd5b8101908080359060200190929190505050611156565b005b6102ef6004803603604081101561028457600080fd5b8101908080359060200190929190803590602001906401000000008111156102ab57600080fd5b8201836020820111156102bd57600080fd5b803590602001918460018302840111640100000000831117156102df57600080fd5b909192939192939050505061128d565b005b61031d6004803603602081101561030757600080fd5b810190808035906020019092919050505061189d565b6040518080602001828103825283818151815260200191508051906020019060200280838360005b83811015610360578082015181840152602081019050610345565b505050509050019250505060405180910390f35b6103ff6004803603606081101561038a57600080fd5b8101908080359060200190929190803590602001906401000000008111156103b157600080fd5b8201836020820111156103c357600080fd5b803590602001918460208302840111640100000000831117156103e557600080fd5b909192939192939080359060200190929190505050611a75565b005b61042d6004803603602081101561041757600080fd5b8101908080359060200190929190505050611e50565b60405180848152602001806020018373ffffffffffffffffffffffffffffffffffffffff1673ffffffffffffffffffffffffffffffffffffffff168152602001828103825284818151815260200191508051906020019080838360005b838110156104a557808201518184015260208101905061048a565b50505050905090810190601f1680156104d25780820380516001836020036101000a031916815260200191505b5094505050505060405180910390f35b61056d600480360360608110156104f857600080fd5b81019080803590602001909291908035906020019064010000000081111561051f57600080fd5b82018360208201111561053157600080fd5b8035906020019184602083028401116401000000008311171561055357600080fd5b909192939192939080359060200190929190505050611fc0565b005b6105bb6004803603604081101561058557600080fd5b8101908080359060200190929190803573ffffffffffffffffffffffffffffffffffffffff16906020019092919050505061239a565b604051808260028111156105cb57fe5b60ff16815260200191505060405180910390f35b836105e86128f2565b6001600083815260200190815260200160002060050160003373ffffffffffffffffffffffffffffffffffffffff1673ffffffffffffffffffffffffffffffffffffffff1681526020019081526020016000206040518060400160405290816000820160009054906101000a900460ff16600281111561066457fe5b600281111561066f57fe5b815260200160018201548152505090506001600281111561068c57fe5b8160000151600281111561069c57fe5b14806106c25750600060028111156106b057fe5b816000015160028111156106c057fe5b145b6106cb57600080fd5b6000816020015114806106e45750600042826020015103115b6106ed57600080fd5b600160008781526020019081526020016000206001016000815480929190600101919050555060016000878152602001908152602001600020600401848490918060018154018082558091505090600182039060005260206000200160009091929390919293909192909192509190610767929190612917565b5050600160008781526020019081526020016000206003013390806001815401808255809150509060018203906000526020600020016000909192909190916101000a81548173ffffffffffffffffffffffffffffffffffffffff021916908373ffffffffffffffffffffffffffffffffffffffff1602179055505084600160008881526020019081526020016000206000018190555060016000878152602001908152602001600020600160008781526020019081526020016000206000820154816000015560018201548160010155600282018160020190805461084e929190612997565b506003820181600301908054610865929190612997565b50600482018160040190805461087c9291906129e9565b5090505060008090505b6001600088815260200190815260200160002060020180549050811015610b445760008090505b600080600160008b815260200190815260200160002060020184815481106108d157fe5b9060005260206000200160009054906101000a900473ffffffffffffffffffffffffffffffffffffffff1673ffffffffffffffffffffffffffffffffffffffff1673ffffffffffffffffffffffffffffffffffffffff16815260200190815260200160002080549050811015610b365787600080600160008c8152602001908152602001600020600201858154811061096657fe5b9060005260206000200160009054906101000a900473ffffffffffffffffffffffffffffffffffffffff1673ffffffffffffffffffffffffffffffffffffffff1673ffffffffffffffffffffffffffffffffffffffff16815260200190815260200160002082815481106109d657fe5b90600052602060002001541415610b295786600080600160008c81526020019081526020016000206002018581548110610a0c57fe5b9060005260206000200160009054906101000a900473ffffffffffffffffffffffffffffffffffffffff1673ffffffffffffffffffffffffffffffffffffffff1673ffffffffffffffffffffffffffffffffffffffff1681526020019081526020016000208281548110610a7c57fe5b906000526020600020018190555087600160008a81526020019081526020016000206002018381548110610aac57fe5b9060005260206000200160009054906101000a900473ffffffffffffffffffffffffffffffffffffffff1673ffffffffffffffffffffffffffffffffffffffff167f71691ea1da45293d295e03c989a45d13bd16ef74d58a49c8f46b22f685f01b2e896040518082815260200191505060405180910390a3610b36565b80806001019150506108ad565b508080600101915050610886565b50600160008781526020019081526020016000206000808201600090556001820160009055600282016000610b799190612a59565b600382016000610b899190612a59565b600482016000610b999190612a7a565b5050505050505050565b83610bac6128f2565b6001600083815260200190815260200160002060050160003373ffffffffffffffffffffffffffffffffffffffff1673ffffffffffffffffffffffffffffffffffffffff1681526020019081526020016000206040518060400160405290816000820160009054906101000a900460ff166002811115610c2857fe5b6002811115610c3357fe5b8152602001600182015481525050905060006002811115610c5057fe5b81600001516002811115610c6057fe5b14610c6a57600080fd5b600081602001511480610c835750600042826020015103115b610c8c57600080fd5b60008090505b85859050811015610f755742600160008981526020019081526020016000206005016000888885818110610cc257fe5b9050602002013573ffffffffffffffffffffffffffffffffffffffff1673ffffffffffffffffffffffffffffffffffffffff1673ffffffffffffffffffffffffffffffffffffffff168152602001908152602001600020600101541015610dc65760016000888152602001908152602001600020600201868683818110610d4557fe5b9050602002013573ffffffffffffffffffffffffffffffffffffffff1690806001815401808255809150509060018203906000526020600020016000909192909190916101000a81548173ffffffffffffffffffffffffffffffffffffffff021916908373ffffffffffffffffffffffffffffffffffffffff160217905550505b600084420190506002600160008a81526020019081526020016000206005016000898986818110610df357fe5b9050602002013573ffffffffffffffffffffffffffffffffffffffff1673ffffffffffffffffffffffffffffffffffffffff1673ffffffffffffffffffffffffffffffffffffffff16815260200190815260200160002060000160006101000a81548160ff02191690836002811115610e6857fe5b021790555080600160008a81526020019081526020016000206005016000898986818110610e9257fe5b9050602002013573ffffffffffffffffffffffffffffffffffffffff1673ffffffffffffffffffffffffffffffffffffffff1673ffffffffffffffffffffffffffffffffffffffff1681526020019081526020016000206001018190555087878784818110610efd57fe5b9050602002013573ffffffffffffffffffffffffffffffffffffffff1673ffffffffffffffffffffffffffffffffffffffff167f5555a97d0bca62098c5362d60a70733d79ef03d0c82c5298b5c27e2687f04e8e836040518082815260200191505060405180910390a3508080600101915050610c92565b50505050505050565b606081610f896128f2565b6001600083815260200190815260200160002060050160003373ffffffffffffffffffffffffffffffffffffffff1673ffffffffffffffffffffffffffffffffffffffff1681526020019081526020016000206040518060400160405290816000820160009054906101000a900460ff16600281111561100557fe5b600281111561101057fe5b8152602001600182015481525050905060028081111561102c57fe5b8160000151600281111561103c57fe5b148061106257506001600281111561105057fe5b8160000151600281111561106057fe5b145b8061108757506000600281111561107557fe5b8160000151600281111561108557fe5b145b61109057600080fd5b6000816020015114806110a95750600042826020015103115b6110b257600080fd5b6001600085815260200190815260200160002060030180548060200260200160405190810160405280929190818152602001828054801561114857602002820191906000526020600020905b8160009054906101000a900473ffffffffffffffffffffffffffffffffffffffff1673ffffffffffffffffffffffffffffffffffffffff16815260200190600101908083116110fe575b505050505092505050919050565b8061115f6128f2565b6001600083815260200190815260200160002060050160003373ffffffffffffffffffffffffffffffffffffffff1673ffffffffffffffffffffffffffffffffffffffff1681526020019081526020016000206040518060400160405290816000820160009054906101000a900460ff1660028111156111db57fe5b60028111156111e657fe5b8152602001600182015481525050905060028081111561120257fe5b8160000151600281111561121257fe5b148061123857506001600281111561122657fe5b8160000151600281111561123657fe5b145b8061125d57506000600281111561124b57fe5b8160000151600281111561125b57fe5b145b61126657600080fd5b60008160200151148061127f5750600042826020015103115b61128857600080fd5b505050565b60006002905060008160003373ffffffffffffffffffffffffffffffffffffffff1673ffffffffffffffffffffffffffffffffffffffff16815260200190815260200160002060000160006101000a81548160ff021916908360028111156112f157fe5b021790555060008160003373ffffffffffffffffffffffffffffffffffffffff1673ffffffffffffffffffffffffffffffffffffffff16815260200190815260200160002060010181905550600060039050803390806001815401808255809150509060018203906000526020600020016000909192909190916101000a81548173ffffffffffffffffffffffffffffffffffffffff021916908373ffffffffffffffffffffffffffffffffffffffff16021790555050600060059050808585909180600181540180825580915050906001820390600052602060002001600090919293909192939091929091925091906113ed929190612917565b505060006004905060043390806001815401808255809150509060018203906000526020600020016000909192909190916101000a81548173ffffffffffffffffffffffffffffffffffffffff021916908373ffffffffffffffffffffffffffffffffffffffff160217905550506040518060a0016040528088815260200160008152602001828054806020026020016040519081016040528092919081815260200182805480156114f457602002820191906000526020600020905b8160009054906101000a900473ffffffffffffffffffffffffffffffffffffffff1673ffffffffffffffffffffffffffffffffffffffff16815260200190600101908083116114aa575b505050505081526020018480548060200260200160405190810160405280929190818152602001828054801561157f57602002820191906000526020600020905b8160009054906101000a900473ffffffffffffffffffffffffffffffffffffffff1673ffffffffffffffffffffffffffffffffffffffff1681526020019060010190808311611535575b5050505050815260200183805480602002602001604051908101604052809291908181526020016000905b82821015611666578382906000526020600020018054600181600116156101000203166002900480601f0160208091040260200160405190810160405280929190818152602001828054600181600116156101000203166002900480156116525780601f1061162757610100808354040283529160200191611652565b820191906000526020600020905b81548152906001019060200180831161163557829003601f168201915b5050505050815260200190600101906115aa565b5050505081525060066000820151816000015560208201518160010155604082015181600201908051906020019061169f929190612a9b565b5060608201518160030190805190602001906116bc929190612a9b565b5060808201518160040190805190602001906116d9929190612b25565b509050506040518060400160405280600060028111156116f557fe5b81526020016000815250600660050160003373ffffffffffffffffffffffffffffffffffffffff1673ffffffffffffffffffffffffffffffffffffffff16815260200190815260200160002060008201518160000160006101000a81548160ff0219169083600281111561176557fe5b021790555060208201518160010155905050600660016000898152602001908152602001600020600082015481600001556001820154816001015560028201816002019080546117b6929190612997565b5060038201816003019080546117cd929190612997565b5060048201816004019080546117e49291906129e9565b509050506000803373ffffffffffffffffffffffffffffffffffffffff1673ffffffffffffffffffffffffffffffffffffffff168152602001908152602001600020879080600181540180825580915050906001820390600052602060002001600090919290919091505550863373ffffffffffffffffffffffffffffffffffffffff167f2c618b3515ba4be58b653279244757f1b863bf68901fee1deb8acc4112200a1f60405160405180910390a350505050505050565b6060816118a86128f2565b6001600083815260200190815260200160002060050160003373ffffffffffffffffffffffffffffffffffffffff1673ffffffffffffffffffffffffffffffffffffffff1681526020019081526020016000206040518060400160405290816000820160009054906101000a900460ff16600281111561192457fe5b600281111561192f57fe5b8152602001600182015481525050905060028081111561194b57fe5b8160000151600281111561195b57fe5b148061198157506001600281111561196f57fe5b8160000151600281111561197f57fe5b145b806119a657506000600281111561199457fe5b816000015160028111156119a457fe5b145b6119af57600080fd5b6000816020015114806119c85750600042826020015103115b6119d157600080fd5b60016000858152602001908152602001600020600201805480602002602001604051908101604052809291908181526020018280548015611a6757602002820191906000526020600020905b8160009054906101000a900473ffffffffffffffffffffffffffffffffffffffff1673ffffffffffffffffffffffffffffffffffffffff1681526020019060010190808311611a1d575b505050505092505050919050565b83611a7e6128f2565b6001600083815260200190815260200160002060050160003373ffffffffffffffffffffffffffffffffffffffff1673ffffffffffffffffffffffffffffffffffffffff1681526020019081526020016000206040518060400160405290816000820160009054906101000a900460ff166002811115611afa57fe5b6002811115611b0557fe5b8152602001600182015481525050905060006002811115611b2257fe5b81600001516002811115611b3257fe5b14611b3c57600080fd5b600081602001511480611b555750600042826020015103115b611b5e57600080fd5b60008090505b85859050811015611e475742600160008981526020019081526020016000206005016000888885818110611b9457fe5b9050602002013573ffffffffffffffffffffffffffffffffffffffff1673ffffffffffffffffffffffffffffffffffffffff1673ffffffffffffffffffffffffffffffffffffffff168152602001908152602001600020600101541015611c985760016000888152602001908152602001600020600201868683818110611c1757fe5b9050602002013573ffffffffffffffffffffffffffffffffffffffff1690806001815401808255809150509060018203906000526020600020016000909192909190916101000a81548173ffffffffffffffffffffffffffffffffffffffff021916908373ffffffffffffffffffffffffffffffffffffffff160217905550505b600084420190506000600160008a81526020019081526020016000206005016000898986818110611cc557fe5b9050602002013573ffffffffffffffffffffffffffffffffffffffff1673ffffffffffffffffffffffffffffffffffffffff1673ffffffffffffffffffffffffffffffffffffffff16815260200190815260200160002060000160006101000a81548160ff02191690836002811115611d3a57fe5b021790555080600160008a81526020019081526020016000206005016000898986818110611d6457fe5b9050602002013573ffffffffffffffffffffffffffffffffffffffff1673ffffffffffffffffffffffffffffffffffffffff1673ffffffffffffffffffffffffffffffffffffffff1681526020019081526020016000206001018190555087878784818110611dcf57fe5b9050602002013573ffffffffffffffffffffffffffffffffffffffff1673ffffffffffffffffffffffffffffffffffffffff167f5555a97d0bca62098c5362d60a70733d79ef03d0c82c5298b5c27e2687f04e8e836040518082815260200191505060405180910390a3508080600101915050611b64565b50505050505050565b60006060600083611e5f6128f2565b6001600083815260200190815260200160002060050160003373ffffffffffffffffffffffffffffffffffffffff1673ffffffffffffffffffffffffffffffffffffffff1681526020019081526020016000206040518060400160405290816000820160009054906101000a900460ff166002811115611edb57fe5b6002811115611ee657fe5b81526020016001820154815250509050600280811115611f0257fe5b81600001516002811115611f1257fe5b1480611f38575060016002811115611f2657fe5b81600001516002811115611f3657fe5b145b80611f5d575060006002811115611f4b57fe5b81600001516002811115611f5b57fe5b145b611f6657600080fd5b600081602001511480611f7f5750600042826020015103115b611f8857600080fd5b6001600087815260200190815260200160002060010154611fa88761253c565b611fb188612753565b94509450945050509193909250565b83611fc96128f2565b6001600083815260200190815260200160002060050160003373ffffffffffffffffffffffffffffffffffffffff1673ffffffffffffffffffffffffffffffffffffffff1681526020019081526020016000206040518060400160405290816000820160009054906101000a900460ff16600281111561204557fe5b600281111561205057fe5b815260200160018201548152505090506000600281111561206d57fe5b8160000151600281111561207d57fe5b1461208757600080fd5b6000816020015114806120a05750600042826020015103115b6120a957600080fd5b60008090505b8585905081101561239157426001600089815260200190815260200160002060050160008888858181106120df57fe5b9050602002013573ffffffffffffffffffffffffffffffffffffffff1673ffffffffffffffffffffffffffffffffffffffff1673ffffffffffffffffffffffffffffffffffffffff1681526020019081526020016000206001015410156121e3576001600088815260200190815260200160002060020186868381811061216257fe5b9050602002013573ffffffffffffffffffffffffffffffffffffffff1690806001815401808255809150509060018203906000526020600020016000909192909190916101000a81548173ffffffffffffffffffffffffffffffffffffffff021916908373ffffffffffffffffffffffffffffffffffffffff160217905550505b6000844201905060018060008a8152602001908152602001600020600501600089898681811061220f57fe5b9050602002013573ffffffffffffffffffffffffffffffffffffffff1673ffffffffffffffffffffffffffffffffffffffff1673ffffffffffffffffffffffffffffffffffffffff16815260200190815260200160002060000160006101000a81548160ff0219169083600281111561228457fe5b021790555080600160008a815260200190815260200160002060050160008989868181106122ae57fe5b9050602002013573ffffffffffffffffffffffffffffffffffffffff1673ffffffffffffffffffffffffffffffffffffffff1673ffffffffffffffffffffffffffffffffffffffff168152602001908152602001600020600101819055508787878481811061231957fe5b9050602002013573ffffffffffffffffffffffffffffffffffffffff1673ffffffffffffffffffffffffffffffffffffffff167f5555a97d0bca62098c5362d60a70733d79ef03d0c82c5298b5c27e2687f04e8e836040518082815260200191505060405180910390a35080806001019150506120af565b50505050505050565b6000826123a56128f2565b6001600083815260200190815260200160002060050160003373ffffffffffffffffffffffffffffffffffffffff1673ffffffffffffffffffffffffffffffffffffffff1681526020019081526020016000206040518060400160405290816000820160009054906101000a900460ff16600281111561242157fe5b600281111561242c57fe5b8152602001600182015481525050905060028081111561244857fe5b8160000151600281111561245857fe5b148061247e57506001600281111561246c57fe5b8160000151600281111561247c57fe5b145b806124a357506000600281111561249157fe5b816000015160028111156124a157fe5b145b6124ac57600080fd5b6000816020015114806124c55750600042826020015103115b6124ce57600080fd5b6001600086815260200190815260200160002060050160008573ffffffffffffffffffffffffffffffffffffffff1673ffffffffffffffffffffffffffffffffffffffff16815260200190815260200160002060000160009054906101000a900460ff169250505092915050565b6060816125476128f2565b6001600083815260200190815260200160002060050160003373ffffffffffffffffffffffffffffffffffffffff1673ffffffffffffffffffffffffffffffffffffffff1681526020019081526020016000206040518060400160405290816000820160009054906101000a900460ff1660028111156125c357fe5b60028111156125ce57fe5b815260200160018201548152505090506002808111156125ea57fe5b816000015160028111156125fa57fe5b148061262057506001600281111561260e57fe5b8160000151600281111561261e57fe5b145b8061264557506000600281111561263357fe5b8160000151600281111561264357fe5b145b61264e57600080fd5b6000816020015114806126675750600042826020015103115b61267057600080fd5b600160008581526020019081526020016000206004016001600086815260200190815260200160002060010154815481106126a757fe5b906000526020600020018054600181600116156101000203166002900480601f0160208091040260200160405190810160405280929190818152602001828054600181600116156101000203166002900480156127455780601f1061271a57610100808354040283529160200191612745565b820191906000526020600020905b81548152906001019060200180831161272857829003601f168201915b505050505092505050919050565b60008161275e6128f2565b6001600083815260200190815260200160002060050160003373ffffffffffffffffffffffffffffffffffffffff1673ffffffffffffffffffffffffffffffffffffffff1681526020019081526020016000206040518060400160405290816000820160009054906101000a900460ff1660028111156127da57fe5b60028111156127e557fe5b8152602001600182015481525050905060028081111561280157fe5b8160000151600281111561281157fe5b148061283757506001600281111561282557fe5b8160000151600281111561283557fe5b145b8061285c57506000600281111561284a57fe5b8160000151600281111561285a57fe5b145b61286557600080fd5b60008160200151148061287e5750600042826020015103115b61288757600080fd5b600160008581526020019081526020016000206003016001600086815260200190815260200160002060010154815481106128be57fe5b9060005260206000200160009054906101000a900473ffffffffffffffffffffffffffffffffffffffff1692505050919050565b60405180604001604052806000600281111561290a57fe5b8152602001600081525090565b828054600181600116156101000203166002900490600052602060002090601f016020900481019282601f1061295857803560ff1916838001178555612986565b82800160010185558215612986579182015b8281111561298557823582559160200191906001019061296a565b5b5090506129939190612b85565b5090565b8280548282559060005260206000209081019282156129d85760005260206000209182015b828111156129d75782548255916001019190600101906129bc565b5b5090506129e59190612baa565b5090565b828054828255906000526020600020908101928215612a485760005260206000209182015b82811115612a475782829080546001816001161561010002031660029004612a37929190612bed565b5091600101919060010190612a0e565b5b509050612a559190612c74565b5090565b5080546000825590600052602060002090810190612a779190612b85565b50565b5080546000825590600052602060002090810190612a989190612c74565b50565b828054828255906000526020600020908101928215612b14579160200282015b82811115612b135782518260006101000a81548173ffffffffffffffffffffffffffffffffffffffff021916908373ffffffffffffffffffffffffffffffffffffffff16021790555091602001919060010190612abb565b5b509050612b219190612baa565b5090565b828054828255906000526020600020908101928215612b74579160200282015b82811115612b73578251829080519060200190612b63929190612ca0565b5091602001919060010190612b45565b5b509050612b819190612c74565b5090565b612ba791905b80821115612ba3576000816000905550600101612b8b565b5090565b90565b612bea91905b80821115612be657600081816101000a81549073ffffffffffffffffffffffffffffffffffffffff021916905550600101612bb0565b5090565b90565b828054600181600116156101000203166002900490600052602060002090601f016020900481019282601f10612c265780548555612c63565b82800160010185558215612c6357600052602060002091601f016020900482015b82811115612c62578254825591600101919060010190612c47565b5b509050612c709190612b85565b5090565b612c9d91905b80821115612c995760008181612c909190612d20565b50600101612c7a565b5090565b90565b828054600181600116156101000203166002900490600052602060002090601f016020900481019282601f10612ce157805160ff1916838001178555612d0f565b82800160010185558215612d0f579182015b82811115612d0e578251825591602001919060010190612cf3565b5b509050612d1c9190612b85565b5090565b50805460018160011615610100020316600290046000825580601f10612d465750612d65565b601f016020900490600052602060002090810190612d649190612b85565b5b5056fea165627a7a7230582024e3bac26144094592910525879b0c8f99618bea8881bc5a0fa2da91267bcd530029",
  "source": "pragma solidity ^0.5.1;\r\n\r\n// import \"./@openzeppelin/contracts/math/SafeMath.sol\";\r\n// using SafeMath for uint;\r\n\r\ncontract FileManagement {\r\n\r\n    mapping (address => uint[]) usersToFiles;\r\n    mapping (uint => File) fileDirectory;\r\n    enum Permissions {Owner, Write, Read}\r\n    struct Permission {\r\n        Permissions permission;\r\n        uint expiryTime; //0 means permission persists infinitely\r\n    }\r\n    \r\n    mapping (address => Permission) filePermissions;\r\n    address[] updaterHistory;\r\n    address[] users;\r\n    string[] locationHistory;\r\n    \r\n    struct File {\r\n        uint fileHash;\r\n        uint currentVersion;\r\n        address[] users;\r\n        address[] updaterHistory;\r\n        string[] locationHistory;\r\n        mapping (address=>Permission) permissions;\r\n        mapping (address=>uint) permissionsExpiry;\r\n    }\r\n    \r\n    File file;\r\n    \r\n    event NewFile(address indexed _owner, uint indexed _fileHash);\r\n    event ReadPermissionGranted(address indexed _user, uint indexed _fileHash, uint expiryTime);\r\n    event WritePermissionGranted(address indexed _user, uint indexed _fileHash, uint expiryTime);\r\n    event OwnerPermissionGranted(address indexed _user, uint indexed _fileHash, uint expiryTime);\r\n    event FileUpdated(address indexed _user, uint indexed _fileHash, uint new_fileHash);\r\n\r\n    modifier isOwner(uint _fileHash){\r\n        Permission memory _permission = fileDirectory[_fileHash].permissions[msg.sender];\r\n        require(_permission.permission == Permissions.Owner);\r\n        require(_permission.expiryTime == 0 || _permission.expiryTime - now > 0);\r\n        _;\r\n    }\r\n    modifier isWriter(uint _fileHash){\r\n        Permission memory _permission = fileDirectory[_fileHash].permissions[msg.sender];\r\n        require(_permission.permission == Permissions.Write ||\r\n            _permission.permission == Permissions.Owner\r\n        );\r\n        require(_permission.expiryTime == 0 || _permission.expiryTime - now > 0);\r\n        _;\r\n    }\r\n    modifier isReader(uint _fileHash){\r\n       Permission memory _permission = fileDirectory[_fileHash].permissions[msg.sender];\r\n        require( _permission.permission == Permissions.Read ||\r\n            _permission.permission == Permissions.Write ||\r\n            _permission.permission == Permissions.Owner\r\n           \r\n        );\r\n        require(_permission.expiryTime == 0 || _permission.expiryTime - now > 0);\r\n        _;\r\n    }\r\n\r\n    function newFile(uint _fileHash, string calldata _location) external {\r\n        //initialize the filePermissions mapping\r\n        mapping(address => Permission) storage _filePermissions = filePermissions;\r\n        _filePermissions[msg.sender].permission = Permissions.Owner;\r\n        _filePermissions[msg.sender].expiryTime = 0;\r\n        \r\n        //initialize updaterHistory, locationHistory and users array\r\n        address[] storage _updaterHistory = updaterHistory;\r\n        _updaterHistory.push(msg.sender);\r\n        string[] storage _locationHistory = locationHistory;\r\n        _locationHistory.push(_location);\r\n        address[] storage _users = users;\r\n        users.push(msg.sender);\r\n        \r\n        // created in memory\r\n        file = File(_fileHash,0, _users,_updaterHistory, _locationHistory);\r\n        file.permissions[msg.sender] = Permission(Permissions.Owner, 0);\r\n        fileDirectory[_fileHash] = file;\r\n        usersToFiles[msg.sender].push(_fileHash);\r\n        \r\n        emit NewFile(msg.sender, _fileHash);\r\n    }\r\n\r\n    //\r\n    function setReadPermissions(uint _fileHash, address[] calldata _users, uint _duration) external isOwner(_fileHash) {\r\n        for (uint i = 0; i < _users.length; i++){\r\n            if (fileDirectory[_fileHash].permissions[_users[i]].expiryTime < now){\r\n                fileDirectory[_fileHash].users.push(_users[i]);\r\n            }\r\n            uint _expiryTime = now + _duration;\r\n            fileDirectory[_fileHash].permissions[_users[i]].permission = Permissions.Read;\r\n            fileDirectory[_fileHash].permissions[_users[i]].expiryTime = _expiryTime;\r\n            \r\n            emit ReadPermissionGranted(_users[i], _fileHash, _expiryTime);\r\n        }\r\n    }\r\n\r\n    function setWritePermissions(uint _fileHash, address[] calldata  _users, uint _duration) external isOwner(_fileHash){\r\n        for (uint i = 0; i < _users.length; i++){\r\n            if (fileDirectory[_fileHash].permissions[_users[i]].expiryTime < now){\r\n                fileDirectory[_fileHash].users.push(_users[i]);\r\n            }\r\n            uint _expiryTime = now + _duration;\r\n            fileDirectory[_fileHash].permissions[_users[i]].permission = Permissions.Write;\r\n            fileDirectory[_fileHash].permissions[_users[i]].expiryTime = _expiryTime;\r\n            emit ReadPermissionGranted(_users[i], _fileHash, _expiryTime);\r\n        }\r\n    }\r\n\r\n    function setOwnerPermissions(uint _fileHash, address[] calldata _users, uint _duration) external isOwner(_fileHash){\r\n        for (uint i = 0; i < _users.length; i++){\r\n            if (fileDirectory[_fileHash].permissions[_users[i]].expiryTime < now){\r\n                fileDirectory[_fileHash].users.push(_users[i]);\r\n            }\r\n            uint _expiryTime = now + _duration;\r\n            fileDirectory[_fileHash].permissions[_users[i]].permission = Permissions.Owner;\r\n            fileDirectory[_fileHash].permissions[_users[i]].expiryTime = _expiryTime;\r\n            emit ReadPermissionGranted(_users[i], _fileHash, _expiryTime);\r\n        }\r\n    }\r\n\r\n    function updateFile(uint _fileHash, uint new_fileHash, string calldata new_location) external isWriter(_fileHash) {\r\n        //increment currentVersion, update locationHistory and updaterHistory\r\n        fileDirectory[_fileHash].currentVersion++;\r\n        fileDirectory[_fileHash].locationHistory.push(new_location);\r\n        fileDirectory[_fileHash].updaterHistory.push(msg.sender);\r\n        //updates new fileHash\r\n        fileDirectory[_fileHash].fileHash = new_fileHash;\r\n        //set new_fileHash to map to the file in fileDirectory\r\n        fileDirectory[new_fileHash] = fileDirectory[_fileHash];\r\n\r\n        for (uint i = 0; i < fileDirectory[_fileHash].users.length; i++){\r\n            for (uint j = 0; j < usersToFiles[fileDirectory[_fileHash].users[i]].length; j++){\r\n                if (usersToFiles[fileDirectory[_fileHash].users[i]][j] == _fileHash){\r\n                    usersToFiles[fileDirectory[_fileHash].users[i]][j] = new_fileHash;\r\n                    emit FileUpdated(fileDirectory[_fileHash].users[i], _fileHash, new_fileHash);\r\n                    break;\r\n                }\r\n            }\r\n        }\r\n\r\n        delete fileDirectory[_fileHash];\r\n    }\r\n\r\n    function viewUsersOfFile(uint _fileHash) external view isReader(_fileHash) returns(address[] memory){\r\n        return fileDirectory[_fileHash].users;\r\n    }\r\n\r\n    function viewFilePermissionsForUser(uint _fileHash, address _user) external view isReader(_fileHash) returns (Permissions){\r\n        return fileDirectory[_fileHash].permissions[_user].permission;\r\n    }\r\n    \r\n    // strings are an array of bytes so Solidity cannot return array of array. can use Seriality library in future implementation\r\n    // function viewLocationHistory(uint _fileHash) external view isReader(_fileHash) returns (string[] memory){\r\n    //     return fileDirectory[_fileHash].locationHistory;\r\n    // }\r\n    \r\n    function viewUpdaterHistory(uint _fileHash) external view isReader(_fileHash) returns (address[] memory){\r\n        return fileDirectory[_fileHash].updaterHistory;\r\n    }\r\n    \r\n    function verifyDocument(uint _fileHash) external view isReader(_fileHash){\r\n\r\n    }\r\n    \r\n    function viewUpdater(uint _fileHash) internal view isReader(_fileHash) returns (address){\r\n        return (fileDirectory[_fileHash].updaterHistory[fileDirectory[_fileHash].currentVersion]);\r\n    }\r\n    \r\n    function viewLocation(uint _fileHash) internal view isReader(_fileHash) returns (string memory){\r\n        return fileDirectory[_fileHash].locationHistory[fileDirectory[_fileHash].currentVersion];\r\n    }\r\n    function viewFile(uint _fileHash) external view isReader(_fileHash) returns (uint, string memory, address){\r\n        return (fileDirectory[_fileHash].currentVersion, viewLocation(_fileHash), viewUpdater(_fileHash));\r\n    }\r\n}",
  "sourcePath": "C:/Users/phangjunyu/Desktop/fyp/solidity/contracts/Deprecated/Deprecated_FileManagement.sol",
  "compiler": {
    "name": "solc",
    "version": "0.5.8+commit.23d335f2.Emscripten.clang"
  },
  "schemaVersion": "3.0.16",
  "updatedAt": "2019-10-05T18:22:59.838Z",
  "devdoc": {
    "methods": {}
  },
  "userdoc": {
    "methods": {}
  }
}