{
  "contractName": "ProxyBaseStorage",
  "abi": [
    {
      "constant": true,
      "inputs": [
        {
          "name": "",
          "type": "bytes4"
        }
      ],
      "name": "delegates",
      "outputs": [
        {
          "name": "",
          "type": "address"
        }
      ],
      "payable": false,
      "stateMutability": "view",
      "type": "function"
    }
  ],
  "bytecode": "0x608060405234801561001057600080fd5b50610116806100206000396000f3fe6080604052348015600f57600080fd5b506004361060285760003560e01c8063a0a2daf014602d575b600080fd5b607560048036036020811015604157600080fd5b8101908080357bffffffffffffffffffffffffffffffffffffffffffffffffffffffff1916906020019092919050505060b7565b604051808273ffffffffffffffffffffffffffffffffffffffff1673ffffffffffffffffffffffffffffffffffffffff16815260200191505060405180910390f35b60006020528060005260406000206000915054906101000a900473ffffffffffffffffffffffffffffffffffffffff168156fea165627a7a72305820a7cb5ce5e7ad544261eece820d3e6386883511ec8f44fb2a3656660f5a06cdf30029",
  "source": "pragma solidity ^0.5.0;\r\n\r\n///////////////////////////////////////////////////////////////////////////////////////////////////\r\n/**\r\n * @title ProxyBaseStorage\r\n * @dev Defining base storage for the proxy contract.\r\n */\r\n///////////////////////////////////////////////////////////////////////////////////////////////////\r\n\r\ncontract ProxyBaseStorage {\r\n\r\n    //////////////////////////////////////////// VARS /////////////////////////////////////////////\r\n\r\n    // maps functions to the delegate contracts that execute the functions.\r\n    // funcId => delegate contract\r\n    mapping(bytes4 => address) public delegates;\r\n\r\n    // array of function signatures supported by the contract.\r\n    bytes[] internal funcSignatures;\r\n\r\n    // maps each function signature to its position in the funcSignatures array.\r\n    // signature => index+1\r\n    mapping(bytes => uint256) internal funcSignatureToIndex;\r\n\r\n    // proxy address of itself, can be used for cross-delegate calls but also safety checking.\r\n    address proxy;\r\n\r\n    ///////////////////////////////////////////////////////////////////////////////////////////////\r\n\r\n}\r\n",
  "sourcePath": "C:\\Users\\phangjunyu\\Desktop\\fyp\\solidity\\contracts\\ProxyReceiver\\ProxyBaseStorage.sol",
  "compiler": {
    "name": "solc",
    "version": "0.5.8+commit.23d335f2.Emscripten.clang"
  },
  "schemaVersion": "3.0.16",
  "updatedAt": "2019-10-11T02:07:33.566Z",
  "devdoc": {
    "methods": {}
  },
  "userdoc": {
    "methods": {},
    "notice": "////////////////////////////////////////////////////////////////////////////////////////////////"
  }
}