{
  "contractName": "ProxyReceiverStorage_002_ERCXXXXFuture",
  "abi": [
    {
      "constant": true,
      "inputs": [],
      "name": "shouldReject",
      "outputs": [
        {
          "name": "",
          "type": "bool"
        }
      ],
      "payable": false,
      "stateMutability": "view",
      "type": "function"
    },
    {
      "constant": true,
      "inputs": [],
      "name": "shouldRejectXXXX",
      "outputs": [
        {
          "name": "",
          "type": "bool"
        }
      ],
      "payable": false,
      "stateMutability": "view",
      "type": "function"
    },
    {
      "constant": true,
      "inputs": [
        {
          "name": "",
          "type": "bytes4"
        }
      ],
      "name": "delegates",
      "outputs": [
        {
          "name": "",
          "type": "address"
        }
      ],
      "payable": false,
      "stateMutability": "view",
      "type": "function"
    }
  ],
  "bytecode": "0x608060405234801561001057600080fd5b5061019c806100206000396000f3fe608060405234801561001057600080fd5b50600436106100415760003560e01c80631dbb93811461004657806391ad57bd14610068578063a0a2daf01461008a575b600080fd5b61004e610117565b604051808215151515815260200191505060405180910390f35b61007061012a565b604051808215151515815260200191505060405180910390f35b6100d5600480360360208110156100a057600080fd5b8101908080357bffffffffffffffffffffffffffffffffffffffffffffffffffffffff1916906020019092919050505061013d565b604051808273ffffffffffffffffffffffffffffffffffffffff1673ffffffffffffffffffffffffffffffffffffffff16815260200191505060405180910390f35b600360149054906101000a900460ff1681565b600360159054906101000a900460ff1681565b60006020528060005260406000206000915054906101000a900473ffffffffffffffffffffffffffffffffffffffff168156fea165627a7a72305820b6fee86bb42b4907dcf72fe4c025d5046ced5592e4913a4020e81ec8cd0b1a2c0029",
  "source": "pragma solidity ^0.5.0;\r\n\r\nimport \"../ProxyBaseStorage.sol\";\r\n\r\n///////////////////////////////////////////////////////////////////////////////////////////////////\r\n/**\r\n * @title DelegatesStorage\r\n * @dev Defining storage inheritance for the delegate contract(s).\r\n *      Note:   This is not the only way to define your storage, DYOR.\r\n */\r\n///////////////////////////////////////////////////////////////////////////////////////////////////\r\n\r\ncontract ProxyReceiverStorage_001_ERC1155MockReceiver is ProxyBaseStorage {\r\n\r\n    //////////////////////////////////////////// VARS /////////////////////////////////////////////\r\n\r\n    // Note: if you alter these values in another delegate impl it affects this too\r\n    bool public shouldReject;\r\n\r\n    ///////////////////////////////////////////////////////////////////////////////////////////////\r\n\r\n}\r\n\r\n///////////////////////////////////////////////////////////////////////////////////////////////////\r\n\r\ncontract ProxyReceiverStorage_002_ERCXXXXFuture is ProxyReceiverStorage_001_ERC1155MockReceiver {\r\n\r\n    //////////////////////////////////////////// VARS /////////////////////////////////////////////\r\n\r\n    bool public shouldRejectXXXX; // var renamed to be specific to prevent clash with parent data version\r\n\r\n    ///////////////////////////////////////////////////////////////////////////////////////////////\r\n\r\n}\r\n\r\n///////////////////////////////////////////////////////////////////////////////////////////////////",
  "sourcePath": "C:\\Users\\phangjunyu\\Desktop\\fyp\\solidity\\contracts\\ProxyReceiver\\Delegates\\DelegatesStorage.sol",
  "compiler": {
    "name": "solc",
    "version": "0.5.8+commit.23d335f2.Emscripten.clang"
  },
  "schemaVersion": "3.0.16",
  "updatedAt": "2019-10-10T06:05:30.342Z",
  "devdoc": {
    "methods": {}
  },
  "userdoc": {
    "methods": {},
    "notice": "////////////////////////////////////////////////////////////////////////////////////////////////"
  }
}