{
  "contractName": "SKUToken",
  "abi": [
    {
      "constant": true,
      "inputs": [
        {
          "name": "_owner",
          "type": "address"
        },
        {
          "name": "_id",
          "type": "uint256"
        }
      ],
      "name": "balanceOf",
      "outputs": [
        {
          "name": "",
          "type": "uint256"
        }
      ],
      "payable": false,
      "stateMutability": "view",
      "type": "function"
    },
    {
      "constant": false,
      "inputs": [
        {
          "name": "_from",
          "type": "address"
        },
        {
          "name": "_to",
          "type": "address"
        },
        {
          "name": "_ids",
          "type": "uint256[]"
        },
        {
          "name": "_values",
          "type": "uint256[]"
        },
        {
          "name": "_data",
          "type": "bytes"
        }
      ],
      "name": "safeBatchTransferFrom",
      "outputs": [],
      "payable": false,
      "stateMutability": "nonpayable",
      "type": "function"
    },
    {
      "constant": true,
      "inputs": [
        {
          "name": "_owners",
          "type": "address[]"
        },
        {
          "name": "_ids",
          "type": "uint256[]"
        }
      ],
      "name": "balanceOfBatch",
      "outputs": [
        {
          "name": "",
          "type": "uint256[]"
        }
      ],
      "payable": false,
      "stateMutability": "view",
      "type": "function"
    },
    {
      "constant": false,
      "inputs": [
        {
          "name": "_operator",
          "type": "address"
        },
        {
          "name": "_approved",
          "type": "bool"
        }
      ],
      "name": "setApprovalForAll",
      "outputs": [],
      "payable": false,
      "stateMutability": "nonpayable",
      "type": "function"
    },
    {
      "constant": true,
      "inputs": [],
      "name": "nonce",
      "outputs": [
        {
          "name": "",
          "type": "uint256"
        }
      ],
      "payable": false,
      "stateMutability": "view",
      "type": "function"
    },
    {
      "constant": true,
      "inputs": [
        {
          "name": "_owner",
          "type": "address"
        },
        {
          "name": "_operator",
          "type": "address"
        }
      ],
      "name": "isApprovedForAll",
      "outputs": [
        {
          "name": "",
          "type": "bool"
        }
      ],
      "payable": false,
      "stateMutability": "view",
      "type": "function"
    },
    {
      "constant": false,
      "inputs": [
        {
          "name": "_from",
          "type": "address"
        },
        {
          "name": "_to",
          "type": "address"
        },
        {
          "name": "_id",
          "type": "uint256"
        },
        {
          "name": "_value",
          "type": "uint256"
        },
        {
          "name": "_data",
          "type": "bytes"
        }
      ],
      "name": "safeTransferFrom",
      "outputs": [],
      "payable": false,
      "stateMutability": "nonpayable",
      "type": "function"
    },
    {
      "anonymous": false,
      "inputs": [
        {
          "indexed": false,
          "name": "_id",
          "type": "uint256"
        },
        {
          "indexed": false,
          "name": "_stakeholders",
          "type": "address"
        },
        {
          "indexed": false,
          "name": "_permissions",
          "type": "uint8"
        }
      ],
      "name": "PermissionSet",
      "type": "event"
    },
    {
      "anonymous": false,
      "inputs": [
        {
          "indexed": true,
          "name": "_operator",
          "type": "address"
        },
        {
          "indexed": true,
          "name": "_from",
          "type": "address"
        },
        {
          "indexed": true,
          "name": "_to",
          "type": "address"
        },
        {
          "indexed": false,
          "name": "_id",
          "type": "uint256"
        },
        {
          "indexed": false,
          "name": "_value",
          "type": "uint256"
        }
      ],
      "name": "TransferSingle",
      "type": "event"
    },
    {
      "anonymous": false,
      "inputs": [
        {
          "indexed": true,
          "name": "_operator",
          "type": "address"
        },
        {
          "indexed": true,
          "name": "_from",
          "type": "address"
        },
        {
          "indexed": true,
          "name": "_to",
          "type": "address"
        },
        {
          "indexed": false,
          "name": "_ids",
          "type": "uint256[]"
        },
        {
          "indexed": false,
          "name": "_values",
          "type": "uint256[]"
        }
      ],
      "name": "TransferBatch",
      "type": "event"
    },
    {
      "anonymous": false,
      "inputs": [
        {
          "indexed": true,
          "name": "_owner",
          "type": "address"
        },
        {
          "indexed": true,
          "name": "_operator",
          "type": "address"
        },
        {
          "indexed": false,
          "name": "_approved",
          "type": "bool"
        }
      ],
      "name": "ApprovalForAll",
      "type": "event"
    },
    {
      "anonymous": false,
      "inputs": [
        {
          "indexed": false,
          "name": "_value",
          "type": "string"
        },
        {
          "indexed": true,
          "name": "_id",
          "type": "uint256"
        }
      ],
      "name": "URI",
      "type": "event"
    },
    {
      "constant": true,
      "inputs": [
        {
          "name": "_interfaceId",
          "type": "bytes4"
        }
      ],
      "name": "supportsInterface",
      "outputs": [
        {
          "name": "",
          "type": "bool"
        }
      ],
      "payable": false,
      "stateMutability": "view",
      "type": "function"
    },
    {
      "constant": true,
      "inputs": [
        {
          "name": "_id",
          "type": "uint256"
        }
      ],
      "name": "getAccessLevelOfUser",
      "outputs": [
        {
          "name": "",
          "type": "uint8"
        }
      ],
      "payable": false,
      "stateMutability": "view",
      "type": "function"
    },
    {
      "constant": false,
      "inputs": [
        {
          "name": "_initialSupply",
          "type": "uint256"
        },
        {
          "name": "_uri",
          "type": "string"
        }
      ],
      "name": "create",
      "outputs": [
        {
          "name": "_id",
          "type": "uint256"
        }
      ],
      "payable": false,
      "stateMutability": "nonpayable",
      "type": "function"
    },
    {
      "constant": false,
      "inputs": [
        {
          "name": "_id",
          "type": "uint256"
        },
        {
          "name": "_to",
          "type": "address[]"
        },
        {
          "name": "_quantities",
          "type": "uint256[]"
        }
      ],
      "name": "mint",
      "outputs": [],
      "payable": false,
      "stateMutability": "nonpayable",
      "type": "function"
    },
    {
      "constant": false,
      "inputs": [
        {
          "name": "_uri",
          "type": "string"
        },
        {
          "name": "_id",
          "type": "uint256"
        }
      ],
      "name": "setURI",
      "outputs": [],
      "payable": false,
      "stateMutability": "nonpayable",
      "type": "function"
    },
    {
      "constant": false,
      "inputs": [
        {
          "name": "_id",
          "type": "uint8"
        },
        {
          "name": "_stakeholders",
          "type": "address[]"
        },
        {
          "name": "_permissions",
          "type": "uint8[]"
        }
      ],
      "name": "setPermissions",
      "outputs": [],
      "payable": false,
      "stateMutability": "nonpayable",
      "type": "function"
    }
  ],
  "bytecode": "0x608060405234801561001057600080fd5b5061254d806100206000396000f3fe608060405234801561001057600080fd5b50600436106100ce5760003560e01c8063a22cb4651161008c578063cfa84fc111610066578063cfa84fc1146105f0578063e985e9c5146106c8578063f242432a14610744578063f87d5e0f14610811576100ce565b8063a22cb4651461053a578063aa537b7d1461058a578063affed0e0146105d2576100ce565b8062fdd58e146100d35780630118fa491461013557806301ffc9a7146101cc5780632eb2c2d6146102315780634e1273f41461039457806367db3b8f146104b7575b600080fd5b61011f600480360360408110156100e957600080fd5b81019080803573ffffffffffffffffffffffffffffffffffffffff169060200190929190803590602001909291905050506108ec565b6040518082815260200191505060405180910390f35b6101b66004803603604081101561014b57600080fd5b81019080803590602001909291908035906020019064010000000081111561017257600080fd5b82018360208201111561018457600080fd5b803590602001918460018302840111640100000000831117156101a657600080fd5b9091929391929390505050610946565b6040518082815260200191505060405180910390f35b610217600480360360208110156101e257600080fd5b8101908080357bffffffffffffffffffffffffffffffffffffffffffffffffffffffff19169060200190929190505050610b14565b604051808215151515815260200191505060405180910390f35b610392600480360360a081101561024757600080fd5b81019080803573ffffffffffffffffffffffffffffffffffffffff169060200190929190803573ffffffffffffffffffffffffffffffffffffffff169060200190929190803590602001906401000000008111156102a457600080fd5b8201836020820111156102b657600080fd5b803590602001918460208302840111640100000000831117156102d857600080fd5b9091929391929390803590602001906401000000008111156102f957600080fd5b82018360208201111561030b57600080fd5b8035906020019184602083028401116401000000008311171561032d57600080fd5b90919293919293908035906020019064010000000081111561034e57600080fd5b82018360208201111561036057600080fd5b8035906020019184600183028401116401000000008311171561038257600080fd5b9091929391929390505050610b7d565b005b610460600480360360408110156103aa57600080fd5b81019080803590602001906401000000008111156103c757600080fd5b8201836020820111156103d957600080fd5b803590602001918460208302840111640100000000831117156103fb57600080fd5b90919293919293908035906020019064010000000081111561041c57600080fd5b82018360208201111561042e57600080fd5b8035906020019184602083028401116401000000008311171561045057600080fd5b9091929391929390505050611119565b6040518080602001828103825283818151815260200191508051906020019060200280838360005b838110156104a3578082015181840152602081019050610488565b505050509050019250505060405180910390f35b610538600480360360408110156104cd57600080fd5b81019080803590602001906401000000008111156104ea57600080fd5b8201836020820111156104fc57600080fd5b8035906020019184600183028401116401000000008311171561051e57600080fd5b90919293919293908035906020019092919050505061122f565b005b6105886004803603604081101561055057600080fd5b81019080803573ffffffffffffffffffffffffffffffffffffffff169060200190929190803515159060200190929190505050611313565b005b6105b6600480360360208110156105a057600080fd5b8101908080359060200190929190505050611414565b604051808260ff1660ff16815260200191505060405180910390f35b6105da6114f4565b6040518082815260200191505060405180910390f35b6106c66004803603606081101561060657600080fd5b81019080803590602001909291908035906020019064010000000081111561062d57600080fd5b82018360208201111561063f57600080fd5b8035906020019184602083028401116401000000008311171561066157600080fd5b90919293919293908035906020019064010000000081111561068257600080fd5b82018360208201111561069457600080fd5b803590602001918460208302840111640100000000831117156106b657600080fd5b90919293919293905050506114fa565b005b61072a600480360360408110156106de57600080fd5b81019080803573ffffffffffffffffffffffffffffffffffffffff169060200190929190803573ffffffffffffffffffffffffffffffffffffffff16906020019092919050505061175b565b604051808215151515815260200191505060405180910390f35b61080f600480360360a081101561075a57600080fd5b81019080803573ffffffffffffffffffffffffffffffffffffffff169060200190929190803573ffffffffffffffffffffffffffffffffffffffff1690602001909291908035906020019092919080359060200190929190803590602001906401000000008111156107cb57600080fd5b8201836020820111156107dd57600080fd5b803590602001918460018302840111640100000000831117156107ff57600080fd5b90919293919293905050506117ef565b005b6108ea6004803603606081101561082757600080fd5b81019080803560ff1690602001909291908035906020019064010000000081111561085157600080fd5b82018360208201111561086357600080fd5b8035906020019184602083028401116401000000008311171561088557600080fd5b9091929391929390803590602001906401000000008111156108a657600080fd5b8201836020820111156108b857600080fd5b803590602001918460208302840111640100000000831117156108da57600080fd5b9091929391929390505050611c1b565b005b600080600083815260200190815260200160002060008473ffffffffffffffffffffffffffffffffffffffff1673ffffffffffffffffffffffffffffffffffffffff16815260200190815260200160002054905092915050565b6000600260008154600101919050819055905060086003600083815260200190815260200160002060003373ffffffffffffffffffffffffffffffffffffffff1673ffffffffffffffffffffffffffffffffffffffff16815260200190815260200160002060006101000a81548160ff021916908360ff1602179055508360008083815260200190815260200160002060003373ffffffffffffffffffffffffffffffffffffffff1673ffffffffffffffffffffffffffffffffffffffff168152602001908152602001600020819055503373ffffffffffffffffffffffffffffffffffffffff16600073ffffffffffffffffffffffffffffffffffffffff163373ffffffffffffffffffffffffffffffffffffffff167fc3d58168c5ae7397731d063d5bbf3d657854427343f4c083240f7aacaa2d0f628488604051808381526020018281526020019250505060405180910390a46000838390501115610b0d57807f6bb7ff708619ba0610cba295a58592e0451dee2622938c8755667688daf3529b848460405180806020018281038252848482818152602001925080828437600081840152601f19601f820116905080830192505050935050505060405180910390a25b9392505050565b6000630e89341c60e01b7bffffffffffffffffffffffffffffffffffffffffffffffffffffffff1916827bffffffffffffffffffffffffffffffffffffffffffffffffffffffff19161415610b6c5760019050610b78565b610b7582611e33565b90505b919050565b600073ffffffffffffffffffffffffffffffffffffffff168773ffffffffffffffffffffffffffffffffffffffff161415610c03576040517f08c379a000000000000000000000000000000000000000000000000000000000815260040180806020018281038252602581526020018061242e6025913960400191505060405180910390fd5b838390508686905014610c61576040517f08c379a00000000000000000000000000000000000000000000000000000000081526004018080602001828103825260298152602001806124c06029913960400191505060405180910390fd5b3373ffffffffffffffffffffffffffffffffffffffff168873ffffffffffffffffffffffffffffffffffffffff161480610d28575060011515600160008a73ffffffffffffffffffffffffffffffffffffffff1673ffffffffffffffffffffffffffffffffffffffff16815260200190815260200160002060003373ffffffffffffffffffffffffffffffffffffffff1673ffffffffffffffffffffffffffffffffffffffff16815260200190815260200160002060009054906101000a900460ff161515145b610d7d576040517f08c379a000000000000000000000000000000000000000000000000000000000815260040180806020018281038252602f815260200180612453602f913960400191505060405180910390fd5b60008090505b86869050811015610f33576000878783818110610d9c57fe5b9050602002013590506000868684818110610db357fe5b905060200201359050610e1e8160008085815260200190815260200160002060008e73ffffffffffffffffffffffffffffffffffffffff1673ffffffffffffffffffffffffffffffffffffffff16815260200190815260200160002054611ee490919063ffffffff16565b60008084815260200190815260200160002060008d73ffffffffffffffffffffffffffffffffffffffff1673ffffffffffffffffffffffffffffffffffffffff16815260200190815260200160002081905550610ed360008084815260200190815260200160002060008c73ffffffffffffffffffffffffffffffffffffffff1673ffffffffffffffffffffffffffffffffffffffff1681526020019081526020016000205482611efb90919063ffffffff16565b60008084815260200190815260200160002060008c73ffffffffffffffffffffffffffffffffffffffff1673ffffffffffffffffffffffffffffffffffffffff168152602001908152602001600020819055505050806001019050610d83565b508673ffffffffffffffffffffffffffffffffffffffff168873ffffffffffffffffffffffffffffffffffffffff163373ffffffffffffffffffffffffffffffffffffffff167f4a39dc06d4c0dbc64b70af90fd698a233a518aa5d07e595d983b8c0526c8f7fb898989896040518080602001806020018381038352878782818152602001925060200280828437600081840152601f19601f8201169050808301925050508381038252858582818152602001925060200280828437600081840152601f19601f820116905080830192505050965050505050505060405180910390a46110358773ffffffffffffffffffffffffffffffffffffffff16611f15565b1561110f5761110e338989898980806020026020016040519081016040528093929190818152602001838360200280828437600081840152601f19601f82011690508083019250505050505050888880806020026020016040519081016040528093929190818152602001838360200280828437600081840152601f19601f8201169050808301925050505050505087878080601f016020809104026020016040519081016040528093929190818152602001838380828437600081840152601f19601f82011690508083019250505050505050611f28565b5b5050505050505050565b606082829050858590501461112d57600080fd5b6060858590506040519080825280602002602001820160405280156111615781602001602082028038833980820191505090505b50905060008090505b868690508110156112225760008086868481811061118457fe5b90506020020135815260200190815260200160002060008888848181106111a757fe5b9050602002013573ffffffffffffffffffffffffffffffffffffffff1673ffffffffffffffffffffffffffffffffffffffff1673ffffffffffffffffffffffffffffffffffffffff1681526020019081526020016000205482828151811061120b57fe5b60200260200101818152505080600101905061116a565b5080915050949350505050565b80600161129b6003600084815260200190815260200160002060003373ffffffffffffffffffffffffffffffffffffffff1673ffffffffffffffffffffffffffffffffffffffff16815260200190815260200160002060009054906101000a900460ff1660ff166121b9565b60ff1610156112a957600080fd5b817f6bb7ff708619ba0610cba295a58592e0451dee2622938c8755667688daf3529b858560405180806020018281038252848482818152602001925080828437600081840152601f19601f820116905080830192505050935050505060405180910390a250505050565b80600160003373ffffffffffffffffffffffffffffffffffffffff1673ffffffffffffffffffffffffffffffffffffffff16815260200190815260200160002060008473ffffffffffffffffffffffffffffffffffffffff1673ffffffffffffffffffffffffffffffffffffffff16815260200190815260200160002060006101000a81548160ff0219169083151502179055508173ffffffffffffffffffffffffffffffffffffffff163373ffffffffffffffffffffffffffffffffffffffff167f17307eab39ab6107e8899845ad3d59bd9653f200f220920489ca2b5937696c3183604051808215151515815260200191505060405180910390a35050565b6000806003600084815260200190815260200160002060003373ffffffffffffffffffffffffffffffffffffffff1673ffffffffffffffffffffffffffffffffffffffff16815260200190815260200160002060009054906101000a900460ff16905060008160ff16141561148d5760009150506114ef565b6003600084815260200190815260200160002060003373ffffffffffffffffffffffffffffffffffffffff1673ffffffffffffffffffffffffffffffffffffffff16815260200190815260200160002060009054906101000a900460ff169150505b919050565b60025481565b8460036115666003600084815260200190815260200160002060003373ffffffffffffffffffffffffffffffffffffffff1673ffffffffffffffffffffffffffffffffffffffff16815260200190815260200160002060009054906101000a900460ff1660ff166121b9565b60ff16101561157457600080fd5b60008090505b8585905081101561175257600086868381811061159357fe5b9050602002013573ffffffffffffffffffffffffffffffffffffffff16905060008585848181106115c057fe5b90506020020135905061162b6000808b815260200190815260200160002060008473ffffffffffffffffffffffffffffffffffffffff1673ffffffffffffffffffffffffffffffffffffffff1681526020019081526020016000205482611efb90919063ffffffff16565b6000808b815260200190815260200160002060008473ffffffffffffffffffffffffffffffffffffffff1673ffffffffffffffffffffffffffffffffffffffff168152602001908152602001600020819055508173ffffffffffffffffffffffffffffffffffffffff16600073ffffffffffffffffffffffffffffffffffffffff163373ffffffffffffffffffffffffffffffffffffffff167fc3d58168c5ae7397731d063d5bbf3d657854427343f4c083240f7aacaa2d0f628c85604051808381526020018281526020019250505060405180910390a46117228273ffffffffffffffffffffffffffffffffffffffff16611f15565b15611745576117443333848c856040518060200160405280600081525061221e565b5b505080600101905061157a565b50505050505050565b6000600160008473ffffffffffffffffffffffffffffffffffffffff1673ffffffffffffffffffffffffffffffffffffffff16815260200190815260200160002060008373ffffffffffffffffffffffffffffffffffffffff1673ffffffffffffffffffffffffffffffffffffffff16815260200190815260200160002060009054906101000a900460ff16905092915050565b600073ffffffffffffffffffffffffffffffffffffffff168573ffffffffffffffffffffffffffffffffffffffff161415611892576040517f08c379a00000000000000000000000000000000000000000000000000000000081526004018080602001828103825260158152602001807f5f746f206d757374206265206e6f6e2d7a65726f2e000000000000000000000081525060200191505060405180910390fd5b3373ffffffffffffffffffffffffffffffffffffffff168673ffffffffffffffffffffffffffffffffffffffff161480611959575060011515600160008873ffffffffffffffffffffffffffffffffffffffff1673ffffffffffffffffffffffffffffffffffffffff16815260200190815260200160002060003373ffffffffffffffffffffffffffffffffffffffff1673ffffffffffffffffffffffffffffffffffffffff16815260200190815260200160002060009054906101000a900460ff161515145b6119ae576040517f08c379a000000000000000000000000000000000000000000000000000000000815260040180806020018281038252602f815260200180612453602f913960400191505060405180910390fd5b611a108360008087815260200190815260200160002060008973ffffffffffffffffffffffffffffffffffffffff1673ffffffffffffffffffffffffffffffffffffffff16815260200190815260200160002054611ee490919063ffffffff16565b60008086815260200190815260200160002060008873ffffffffffffffffffffffffffffffffffffffff1673ffffffffffffffffffffffffffffffffffffffff16815260200190815260200160002081905550611ac560008086815260200190815260200160002060008773ffffffffffffffffffffffffffffffffffffffff1673ffffffffffffffffffffffffffffffffffffffff1681526020019081526020016000205484611efb90919063ffffffff16565b60008086815260200190815260200160002060008773ffffffffffffffffffffffffffffffffffffffff1673ffffffffffffffffffffffffffffffffffffffff168152602001908152602001600020819055508473ffffffffffffffffffffffffffffffffffffffff168673ffffffffffffffffffffffffffffffffffffffff163373ffffffffffffffffffffffffffffffffffffffff167fc3d58168c5ae7397731d063d5bbf3d657854427343f4c083240f7aacaa2d0f628787604051808381526020018281526020019250505060405180910390a4611bbb8573ffffffffffffffffffffffffffffffffffffffff16611f15565b15611c1357611c12338787878787878080601f016020809104026020016040519081016040528093929190818152602001838380828437600081840152601f19601f8201169050808301925050505050505061221e565b5b505050505050565b8460ff166002611c8a6003600084815260200190815260200160002060003373ffffffffffffffffffffffffffffffffffffffff1673ffffffffffffffffffffffffffffffffffffffff16815260200190815260200160002060009054906101000a900460ff1660ff166121b9565b60ff161015611c9857600080fd5b828290508585905014611caa57600080fd5b60008090505b85859050811015611e2a57838382818110611cc757fe5b9050602002013560ff16600360008960ff1681526020019081526020016000206000888885818110611cf557fe5b9050602002013573ffffffffffffffffffffffffffffffffffffffff1673ffffffffffffffffffffffffffffffffffffffff1673ffffffffffffffffffffffffffffffffffffffff16815260200190815260200160002060006101000a81548160ff021916908360ff1602179055507f671735d12e3f36346cd7bd90c76122d46c8b66c4b0a01e1a9f1f6709beca8fbf87878784818110611d9257fe5b9050602002013573ffffffffffffffffffffffffffffffffffffffff16868685818110611dbb57fe5b9050602002013560ff16604051808460ff1681526020018373ffffffffffffffffffffffffffffffffffffffff1673ffffffffffffffffffffffffffffffffffffffff1681526020018260ff1660ff168152602001935050505060405180910390a18080600101915050611cb0565b50505050505050565b60006301ffc9a760e01b7bffffffffffffffffffffffffffffffffffffffffffffffffffffffff1916827bffffffffffffffffffffffffffffffffffffffffffffffffffffffff19161480611ecc575063d9b67a2660e01b7bffffffffffffffffffffffffffffffffffffffffffffffffffffffff1916827bffffffffffffffffffffffffffffffffffffffffffffffffffffffff1916145b15611eda5760019050611edf565b600090505b919050565b600082821115611ef057fe5b818303905092915050565b6000818301905082811015611f0c57fe5b80905092915050565b600080823b905060008111915050919050565b63bc197c8160e01b7bffffffffffffffffffffffffffffffffffffffffffffffffffffffff19168473ffffffffffffffffffffffffffffffffffffffff1663bc197c8188888787876040518663ffffffff1660e01b8152600401808673ffffffffffffffffffffffffffffffffffffffff1673ffffffffffffffffffffffffffffffffffffffff1681526020018573ffffffffffffffffffffffffffffffffffffffff1673ffffffffffffffffffffffffffffffffffffffff168152602001806020018060200180602001848103845287818151815260200191508051906020019060200280838360005b8381101561202e578082015181840152602081019050612013565b50505050905001848103835286818151815260200191508051906020019060200280838360005b83811015612070578082015181840152602081019050612055565b50505050905001848103825285818151815260200191508051906020019080838360005b838110156120af578082015181840152602081019050612094565b50505050905090810190601f1680156120dc5780820380516001836020036101000a031916815260200191505b5098505050505050505050602060405180830381600087803b15801561210157600080fd5b505af1158015612115573d6000803e3d6000fd5b505050506040513d602081101561212b57600080fd5b81019080805190602001909291905050507bffffffffffffffffffffffffffffffffffffffffffffffffffffffff1916146121b1576040517f08c379a000000000000000000000000000000000000000000000000000000000815260040180806020018281038252603e815260200180612482603e913960400191505060405180910390fd5b505050505050565b6000808214156121c857600080fd5b60008290506000608090505b60018160ff16106122175760008160ff1660018360ff166001901b03901b8316146122085780830192508060ff1682901c91505b60018160ff16901c90506121d4565b5050919050565b63f23a6e6160e01b7bffffffffffffffffffffffffffffffffffffffffffffffffffffffff19168473ffffffffffffffffffffffffffffffffffffffff1663f23a6e6188888787876040518663ffffffff1660e01b8152600401808673ffffffffffffffffffffffffffffffffffffffff1673ffffffffffffffffffffffffffffffffffffffff1681526020018573ffffffffffffffffffffffffffffffffffffffff1673ffffffffffffffffffffffffffffffffffffffff16815260200184815260200183815260200180602001828103825283818151815260200191508051906020019080838360005b8381101561232557808201518184015260208101905061230a565b50505050905090810190601f1680156123525780820380516001836020036101000a031916815260200191505b509650505050505050602060405180830381600087803b15801561237557600080fd5b505af1158015612389573d6000803e3d6000fd5b505050506040513d602081101561239f57600080fd5b81019080805190602001909291905050507bffffffffffffffffffffffffffffffffffffffffffffffffffffffff191614612425576040517f08c379a00000000000000000000000000000000000000000000000000000000081526004018080602001828103825260398152602001806124e96039913960400191505060405180910390fd5b50505050505056fe64657374696e6174696f6e2061646472657373206d757374206265206e6f6e2d7a65726f2e4e656564206f70657261746f7220617070726f76616c20666f7220337264207061727479207472616e73666572732e636f6e74726163742072657475726e656420616e20756e6b6e6f776e2076616c75652066726f6d206f6e45524331313535426174636852656365697665645f69647320616e64205f76616c756573206172726179206c656e676874206d757374206d617463682e636f6e74726163742072657475726e656420616e20756e6b6e6f776e2076616c75652066726f6d206f6e455243313135355265636569766564a165627a7a7230582049911f92823b1044758913b367a539ca0868c0a327fb05203fd164797f0091f80029",
  "source": "pragma solidity ^0.5.3;\r\nimport \"./ERC1155.sol\";\r\nimport {Bits} from  \"./Util/Bits.sol\";\r\n\r\n/* \r\nA Token is created for every SKU. The supply can be equals to the production/order amount. Every time a shipment is sent out, mint a new token. \r\nThis contract is an edited duplicate of ERC1155Mintable.sol\r\n*/\r\ncontract SKUToken is ERC1155 {\r\n\r\n    bytes4 constant private INTERFACE_SIGNATURE_URI = 0x0e89341c;\r\n\r\n    uint256 public nonce;\r\n\r\n    using Bits for uint8;\r\n\r\n    event PermissionSet(uint256 _id, address _stakeholders, uint8 _permissions);\r\n\r\n    //8 - 1000\r\n    modifier creatorOnly (uint256 _id) {\r\n        require(accessControlList[_id][msg.sender].highestBitSet() >= 3);\r\n        _;\r\n    }\r\n\r\n    //4 - 100\r\n    modifier ownerOnly (uint256 _id) {\r\n        require(accessControlList[_id][msg.sender].highestBitSet() >= 2);\r\n        _;\r\n    }\r\n\r\n    //2 - 10\r\n    modifier writeOnly (uint256 _id) {\r\n        require(accessControlList[_id][msg.sender].highestBitSet() >= 1);\r\n        _;\r\n    }\r\n\r\n    //1 - 1\r\n    modifier readOnly (uint256 _id) {\r\n        require(accessControlList[_id][msg.sender].highestBitSet() >= 0);\r\n        _;\r\n    }\r\n\r\n    // Read Permission is rightmost bit, left of it is Write and left of that is Owner\r\n    mapping (uint256 => mapping(address => uint8)) accessControlList;\r\n\r\n    function supportsInterface(bytes4 _interfaceId)\r\n    public\r\n    view\r\n    returns (bool) {\r\n        if (_interfaceId == INTERFACE_SIGNATURE_URI) {\r\n            return true;\r\n        } else {\r\n            return super.supportsInterface(_interfaceId);\r\n        }\r\n    }\r\n\r\n    function getAccessLevelOfUser(uint256 _id) external view returns (uint8){\r\n        uint8 permission = accessControlList[_id][msg.sender];\r\n        if( permission == 0){\r\n            return 0;\r\n        } else {\r\n            return accessControlList[_id][msg.sender];\r\n        }\r\n        \r\n    }\r\n\r\n    // Creates a new token type and assigns _initialSupply to minter\r\n    function create(uint256 _initialSupply, string calldata _uri) external returns(uint256 _id) {\r\n\r\n        _id = ++nonce;\r\n        accessControlList[_id][msg.sender] = uint8(8);\r\n        balances[_id][msg.sender] = _initialSupply;\r\n\r\n        // Transfer event with mint semantic\r\n        emit TransferSingle(msg.sender, address(0x0), msg.sender, _id, _initialSupply);\r\n\r\n        if (bytes(_uri).length > 0)\r\n            emit URI(_uri, _id);\r\n    }\r\n\r\n    // Batch mint tokens. Assign directly to _to[].\r\n    function mint(uint256 _id, address[] calldata _to, uint256[] calldata _quantities) external creatorOnly(_id) {\r\n\r\n        for (uint256 i = 0; i < _to.length; ++i) {\r\n\r\n            address to = _to[i];\r\n            uint256 quantity = _quantities[i];\r\n\r\n            // Grant the items to the caller\r\n            balances[_id][to] = quantity.add(balances[_id][to]);\r\n\r\n            // Emit the Transfer/Mint event.\r\n            // the 0x0 source address implies a mint\r\n            // It will also provide the circulating supply info.\r\n            emit TransferSingle(msg.sender, address(0x0), to, _id, quantity);\r\n\r\n            if (to.isContract()) {\r\n                _doSafeTransferAcceptanceCheck(msg.sender, msg.sender, to, _id, quantity, '');\r\n            }\r\n        }\r\n    }\r\n\r\n    function setURI(string calldata _uri, uint256 _id) external writeOnly(_id) {\r\n        emit URI(_uri, _id);\r\n    }\r\n\r\n    //refactor into individual permissions for each level\r\n    function setPermissions(uint8 _id, address[] calldata _stakeholders, uint8[] calldata _permissions) external ownerOnly(_id) {\r\n        require(_stakeholders.length == _permissions.length);\r\n        for (uint i = 0; i < _stakeholders.length; i++){\r\n            accessControlList[_id][_stakeholders[i]] = _permissions[i];\r\n            emit PermissionSet(_id, _stakeholders[i], _permissions[i]);\r\n        }\r\n    } \r\n}",
  "sourcePath": "C:/Users/phangjunyu/Desktop/fyp/solidity/contracts/SKUToken.sol",
  "compiler": {
    "name": "solc",
    "version": "0.5.8+commit.23d335f2.Emscripten.clang"
  },
  "schemaVersion": "3.0.16",
  "updatedAt": "2019-10-09T10:32:42.899Z",
  "devdoc": {
    "methods": {
      "balanceOf(address,uint256)": {
        "params": {
          "_id": "ID of the Token\r",
          "_owner": "The address of the token holder\r"
        },
        "return": "The _owner's balance of the Token type requested\r"
      },
      "balanceOfBatch(address[],uint256[])": {
        "params": {
          "_ids": "ID of the Tokens\r",
          "_owners": "The addresses of the token holders\r"
        },
        "return": "The _owner's balance of the Token types requested (i.e. balance for each (owner, id) pair)\r"
      },
      "isApprovedForAll(address,address)": {
        "params": {
          "_operator": "Address of authorized operator\r",
          "_owner": "The owner of the Tokens\r"
        },
        "return": "True if the operator is approved, false if not\r"
      },
      "safeBatchTransferFrom(address,address,uint256[],uint256[],bytes)": {
        "details": "Caller must be approved to manage the tokens being transferred out of the `_from` account (see \"Approval\" section of the standard).\r MUST revert if `_to` is the zero address.\r MUST revert if length of `_ids` is not the same as length of `_values`.\r MUST revert if any of the balance(s) of the holder(s) for token(s) in `_ids` is lower than the respective amount(s) in `_values` sent to the recipient.\r MUST revert on any other error.\r MUST emit `TransferSingle` or `TransferBatch` event(s) such that all the balance changes are reflected (see \"Safe Transfer Rules\" section of the standard).\r Balance changes and events MUST follow the ordering of the arrays (_ids[0]/_values[0] before _ids[1]/_values[1], etc).\r After the above conditions for the transfer(s) in the batch are met, this function MUST check if `_to` is a smart contract (e.g. code size > 0). If so, it MUST call the relevant `ERC1155TokenReceiver` hook(s) on `_to` and act appropriately (see \"Safe Transfer Rules\" section of the standard).\r",
        "params": {
          "_data": "Additional data with no specified format, MUST be sent unaltered in call to the `ERC1155TokenReceiver` hook(s) on `_to`\r",
          "_from": "Source address\r",
          "_ids": "IDs of each token type (order and length must match _values array)\r",
          "_to": "Target address\r",
          "_values": "Transfer amounts per token type (order and length must match _ids array)\r"
        }
      },
      "safeTransferFrom(address,address,uint256,uint256,bytes)": {
        "details": "Caller must be approved to manage the tokens being transferred out of the `_from` account (see \"Approval\" section of the standard).\r MUST revert if `_to` is the zero address.\r MUST revert if balance of holder for token `_id` is lower than the `_value` sent.\r MUST revert on any other error.\r MUST emit the `TransferSingle` event to reflect the balance change (see \"Safe Transfer Rules\" section of the standard).\r After the above conditions are met, this function MUST check if `_to` is a smart contract (e.g. code size > 0). If so, it MUST call `onERC1155Received` on `_to` and act appropriately (see \"Safe Transfer Rules\" section of the standard).\r",
        "params": {
          "_data": "Additional data with no specified format, MUST be sent unaltered in call to `onERC1155Received` on `_to`\r",
          "_from": "Source address\r",
          "_id": "ID of the token type\r",
          "_to": "Target address\r",
          "_value": "Transfer amount\r"
        }
      },
      "setApprovalForAll(address,bool)": {
        "details": "MUST emit the ApprovalForAll event on success.\r",
        "params": {
          "_approved": "True if the operator is approved, false to revoke approval\r",
          "_operator": "Address to add to the set of authorized operators\r"
        }
      }
    }
  },
  "userdoc": {
    "methods": {
      "balanceOf(address,uint256)": {
        "notice": "Get the balance of an account's Tokens.\r"
      },
      "balanceOfBatch(address[],uint256[])": {
        "notice": "Get the balance of multiple account/token pairs\r"
      },
      "isApprovedForAll(address,address)": {
        "notice": "Queries the approval status of an operator for a given owner.\r"
      },
      "safeBatchTransferFrom(address,address,uint256[],uint256[],bytes)": {
        "notice": "Transfers `_values` amount(s) of `_ids` from the `_from` address to the `_to` address specified (with safety call).\r"
      },
      "safeTransferFrom(address,address,uint256,uint256,bytes)": {
        "notice": "Transfers `_value` amount of an `_id` from the `_from` address to the `_to` address specified (with safety call).\r"
      },
      "setApprovalForAll(address,bool)": {
        "notice": "Enable or disable approval for a third party (\"operator\") to manage all of the caller's tokens.\r"
      }
    }
  }
}