{
  "contractName": "SKUToken",
  "abi": [
    {
      "constant": true,
      "inputs": [
        {
          "name": "_owner",
          "type": "address"
        },
        {
          "name": "_id",
          "type": "uint256"
        }
      ],
      "name": "balanceOf",
      "outputs": [
        {
          "name": "",
          "type": "uint256"
        }
      ],
      "payable": false,
      "stateMutability": "view",
      "type": "function"
    },
    {
      "constant": false,
      "inputs": [
        {
          "name": "_from",
          "type": "address"
        },
        {
          "name": "_to",
          "type": "address"
        },
        {
          "name": "_ids",
          "type": "uint256[]"
        },
        {
          "name": "_values",
          "type": "uint256[]"
        },
        {
          "name": "_data",
          "type": "bytes"
        }
      ],
      "name": "safeBatchTransferFrom",
      "outputs": [],
      "payable": false,
      "stateMutability": "nonpayable",
      "type": "function"
    },
    {
      "constant": true,
      "inputs": [
        {
          "name": "_owners",
          "type": "address[]"
        },
        {
          "name": "_ids",
          "type": "uint256[]"
        }
      ],
      "name": "balanceOfBatch",
      "outputs": [
        {
          "name": "",
          "type": "uint256[]"
        }
      ],
      "payable": false,
      "stateMutability": "view",
      "type": "function"
    },
    {
      "constant": false,
      "inputs": [
        {
          "name": "_operator",
          "type": "address"
        },
        {
          "name": "_approved",
          "type": "bool"
        }
      ],
      "name": "setApprovalForAll",
      "outputs": [],
      "payable": false,
      "stateMutability": "nonpayable",
      "type": "function"
    },
    {
      "constant": true,
      "inputs": [],
      "name": "nonce",
      "outputs": [
        {
          "name": "",
          "type": "uint256"
        }
      ],
      "payable": false,
      "stateMutability": "view",
      "type": "function"
    },
    {
      "constant": true,
      "inputs": [
        {
          "name": "_owner",
          "type": "address"
        },
        {
          "name": "_operator",
          "type": "address"
        }
      ],
      "name": "isApprovedForAll",
      "outputs": [
        {
          "name": "",
          "type": "bool"
        }
      ],
      "payable": false,
      "stateMutability": "view",
      "type": "function"
    },
    {
      "constant": false,
      "inputs": [
        {
          "name": "_from",
          "type": "address"
        },
        {
          "name": "_to",
          "type": "address"
        },
        {
          "name": "_id",
          "type": "uint256"
        },
        {
          "name": "_value",
          "type": "uint256"
        },
        {
          "name": "_data",
          "type": "bytes"
        }
      ],
      "name": "safeTransferFrom",
      "outputs": [],
      "payable": false,
      "stateMutability": "nonpayable",
      "type": "function"
    },
    {
      "anonymous": false,
      "inputs": [
        {
          "indexed": false,
          "name": "_id",
          "type": "uint256"
        },
        {
          "indexed": false,
          "name": "_stakeholders",
          "type": "address"
        },
        {
          "indexed": false,
          "name": "_permissions",
          "type": "uint8"
        }
      ],
      "name": "PermissionSet",
      "type": "event"
    },
    {
      "anonymous": false,
      "inputs": [
        {
          "indexed": true,
          "name": "_operator",
          "type": "address"
        },
        {
          "indexed": true,
          "name": "_from",
          "type": "address"
        },
        {
          "indexed": true,
          "name": "_to",
          "type": "address"
        },
        {
          "indexed": false,
          "name": "_id",
          "type": "uint256"
        },
        {
          "indexed": false,
          "name": "_value",
          "type": "uint256"
        }
      ],
      "name": "TransferSingle",
      "type": "event"
    },
    {
      "anonymous": false,
      "inputs": [
        {
          "indexed": true,
          "name": "_operator",
          "type": "address"
        },
        {
          "indexed": true,
          "name": "_from",
          "type": "address"
        },
        {
          "indexed": true,
          "name": "_to",
          "type": "address"
        },
        {
          "indexed": false,
          "name": "_ids",
          "type": "uint256[]"
        },
        {
          "indexed": false,
          "name": "_values",
          "type": "uint256[]"
        }
      ],
      "name": "TransferBatch",
      "type": "event"
    },
    {
      "anonymous": false,
      "inputs": [
        {
          "indexed": true,
          "name": "_owner",
          "type": "address"
        },
        {
          "indexed": true,
          "name": "_operator",
          "type": "address"
        },
        {
          "indexed": false,
          "name": "_approved",
          "type": "bool"
        }
      ],
      "name": "ApprovalForAll",
      "type": "event"
    },
    {
      "anonymous": false,
      "inputs": [
        {
          "indexed": false,
          "name": "_value",
          "type": "string"
        },
        {
          "indexed": true,
          "name": "_id",
          "type": "uint256"
        }
      ],
      "name": "URI",
      "type": "event"
    },
    {
      "constant": true,
      "inputs": [
        {
          "name": "_interfaceId",
          "type": "bytes4"
        }
      ],
      "name": "supportsInterface",
      "outputs": [
        {
          "name": "",
          "type": "bool"
        }
      ],
      "payable": false,
      "stateMutability": "view",
      "type": "function"
    },
    {
      "constant": false,
      "inputs": [
        {
          "name": "_initialSupply",
          "type": "uint256"
        },
        {
          "name": "_uri",
          "type": "string"
        }
      ],
      "name": "create",
      "outputs": [
        {
          "name": "_id",
          "type": "uint256"
        }
      ],
      "payable": false,
      "stateMutability": "nonpayable",
      "type": "function"
    },
    {
      "constant": false,
      "inputs": [
        {
          "name": "_id",
          "type": "uint256"
        },
        {
          "name": "_to",
          "type": "address[]"
        },
        {
          "name": "_quantities",
          "type": "uint256[]"
        }
      ],
      "name": "mint",
      "outputs": [],
      "payable": false,
      "stateMutability": "nonpayable",
      "type": "function"
    },
    {
      "constant": false,
      "inputs": [
        {
          "name": "_uri",
          "type": "string"
        },
        {
          "name": "_id",
          "type": "uint256"
        }
      ],
      "name": "setURI",
      "outputs": [],
      "payable": false,
      "stateMutability": "nonpayable",
      "type": "function"
    },
    {
      "constant": false,
      "inputs": [
        {
          "name": "_id",
          "type": "uint8"
        },
        {
          "name": "_stakeholders",
          "type": "address[]"
        },
        {
          "name": "_permissions",
          "type": "uint8[]"
        }
      ],
      "name": "setPermissions",
      "outputs": [],
      "payable": false,
      "stateMutability": "nonpayable",
      "type": "function"
    }
  ],
  "bytecode": "0x608060405234801561001057600080fd5b5061240a806100206000396000f3fe608060405234801561001057600080fd5b50600436106100b35760003560e01c8063a22cb46511610071578063a22cb4651461051f578063affed0e01461056f578063cfa84fc11461058d578063e985e9c514610665578063f242432a146106e1578063f87d5e0f146107ae576100b3565b8062fdd58e146100b85780630118fa491461011a57806301ffc9a7146101b15780632eb2c2d6146102165780634e1273f41461037957806367db3b8f1461049c575b600080fd5b610104600480360360408110156100ce57600080fd5b81019080803573ffffffffffffffffffffffffffffffffffffffff16906020019092919080359060200190929190505050610889565b6040518082815260200191505060405180910390f35b61019b6004803603604081101561013057600080fd5b81019080803590602001909291908035906020019064010000000081111561015757600080fd5b82018360208201111561016957600080fd5b8035906020019184600183028401116401000000008311171561018b57600080fd5b90919293919293905050506108e3565b6040518082815260200191505060405180910390f35b6101fc600480360360208110156101c757600080fd5b8101908080357bffffffffffffffffffffffffffffffffffffffffffffffffffffffff19169060200190929190505050610ab1565b604051808215151515815260200191505060405180910390f35b610377600480360360a081101561022c57600080fd5b81019080803573ffffffffffffffffffffffffffffffffffffffff169060200190929190803573ffffffffffffffffffffffffffffffffffffffff1690602001909291908035906020019064010000000081111561028957600080fd5b82018360208201111561029b57600080fd5b803590602001918460208302840111640100000000831117156102bd57600080fd5b9091929391929390803590602001906401000000008111156102de57600080fd5b8201836020820111156102f057600080fd5b8035906020019184602083028401116401000000008311171561031257600080fd5b90919293919293908035906020019064010000000081111561033357600080fd5b82018360208201111561034557600080fd5b8035906020019184600183028401116401000000008311171561036757600080fd5b9091929391929390505050610b1a565b005b6104456004803603604081101561038f57600080fd5b81019080803590602001906401000000008111156103ac57600080fd5b8201836020820111156103be57600080fd5b803590602001918460208302840111640100000000831117156103e057600080fd5b90919293919293908035906020019064010000000081111561040157600080fd5b82018360208201111561041357600080fd5b8035906020019184602083028401116401000000008311171561043557600080fd5b90919293919293905050506110b6565b6040518080602001828103825283818151815260200191508051906020019060200280838360005b8381101561048857808201518184015260208101905061046d565b505050509050019250505060405180910390f35b61051d600480360360408110156104b257600080fd5b81019080803590602001906401000000008111156104cf57600080fd5b8201836020820111156104e157600080fd5b8035906020019184600183028401116401000000008311171561050357600080fd5b9091929391929390803590602001909291905050506111cc565b005b61056d6004803603604081101561053557600080fd5b81019080803573ffffffffffffffffffffffffffffffffffffffff1690602001909291908035151590602001909291905050506112b0565b005b6105776113b1565b6040518082815260200191505060405180910390f35b610663600480360360608110156105a357600080fd5b8101908080359060200190929190803590602001906401000000008111156105ca57600080fd5b8201836020820111156105dc57600080fd5b803590602001918460208302840111640100000000831117156105fe57600080fd5b90919293919293908035906020019064010000000081111561061f57600080fd5b82018360208201111561063157600080fd5b8035906020019184602083028401116401000000008311171561065357600080fd5b90919293919293905050506113b7565b005b6106c76004803603604081101561067b57600080fd5b81019080803573ffffffffffffffffffffffffffffffffffffffff169060200190929190803573ffffffffffffffffffffffffffffffffffffffff169060200190929190505050611618565b604051808215151515815260200191505060405180910390f35b6107ac600480360360a08110156106f757600080fd5b81019080803573ffffffffffffffffffffffffffffffffffffffff169060200190929190803573ffffffffffffffffffffffffffffffffffffffff16906020019092919080359060200190929190803590602001909291908035906020019064010000000081111561076857600080fd5b82018360208201111561077a57600080fd5b8035906020019184600183028401116401000000008311171561079c57600080fd5b90919293919293905050506116ac565b005b610887600480360360608110156107c457600080fd5b81019080803560ff169060200190929190803590602001906401000000008111156107ee57600080fd5b82018360208201111561080057600080fd5b8035906020019184602083028401116401000000008311171561082257600080fd5b90919293919293908035906020019064010000000081111561084357600080fd5b82018360208201111561085557600080fd5b8035906020019184602083028401116401000000008311171561087757600080fd5b9091929391929390505050611ad8565b005b600080600083815260200190815260200160002060008473ffffffffffffffffffffffffffffffffffffffff1673ffffffffffffffffffffffffffffffffffffffff16815260200190815260200160002054905092915050565b6000600260008154600101919050819055905060086003600083815260200190815260200160002060003373ffffffffffffffffffffffffffffffffffffffff1673ffffffffffffffffffffffffffffffffffffffff16815260200190815260200160002060006101000a81548160ff021916908360ff1602179055508360008083815260200190815260200160002060003373ffffffffffffffffffffffffffffffffffffffff1673ffffffffffffffffffffffffffffffffffffffff168152602001908152602001600020819055503373ffffffffffffffffffffffffffffffffffffffff16600073ffffffffffffffffffffffffffffffffffffffff163373ffffffffffffffffffffffffffffffffffffffff167fc3d58168c5ae7397731d063d5bbf3d657854427343f4c083240f7aacaa2d0f628488604051808381526020018281526020019250505060405180910390a46000838390501115610aaa57807f6bb7ff708619ba0610cba295a58592e0451dee2622938c8755667688daf3529b848460405180806020018281038252848482818152602001925080828437600081840152601f19601f820116905080830192505050935050505060405180910390a25b9392505050565b6000630e89341c60e01b7bffffffffffffffffffffffffffffffffffffffffffffffffffffffff1916827bffffffffffffffffffffffffffffffffffffffffffffffffffffffff19161415610b095760019050610b15565b610b1282611cf0565b90505b919050565b600073ffffffffffffffffffffffffffffffffffffffff168773ffffffffffffffffffffffffffffffffffffffff161415610ba0576040517f08c379a00000000000000000000000000000000000000000000000000000000081526004018080602001828103825260258152602001806122eb6025913960400191505060405180910390fd5b838390508686905014610bfe576040517f08c379a000000000000000000000000000000000000000000000000000000000815260040180806020018281038252602981526020018061237d6029913960400191505060405180910390fd5b3373ffffffffffffffffffffffffffffffffffffffff168873ffffffffffffffffffffffffffffffffffffffff161480610cc5575060011515600160008a73ffffffffffffffffffffffffffffffffffffffff1673ffffffffffffffffffffffffffffffffffffffff16815260200190815260200160002060003373ffffffffffffffffffffffffffffffffffffffff1673ffffffffffffffffffffffffffffffffffffffff16815260200190815260200160002060009054906101000a900460ff161515145b610d1a576040517f08c379a000000000000000000000000000000000000000000000000000000000815260040180806020018281038252602f815260200180612310602f913960400191505060405180910390fd5b60008090505b86869050811015610ed0576000878783818110610d3957fe5b9050602002013590506000868684818110610d5057fe5b905060200201359050610dbb8160008085815260200190815260200160002060008e73ffffffffffffffffffffffffffffffffffffffff1673ffffffffffffffffffffffffffffffffffffffff16815260200190815260200160002054611da190919063ffffffff16565b60008084815260200190815260200160002060008d73ffffffffffffffffffffffffffffffffffffffff1673ffffffffffffffffffffffffffffffffffffffff16815260200190815260200160002081905550610e7060008084815260200190815260200160002060008c73ffffffffffffffffffffffffffffffffffffffff1673ffffffffffffffffffffffffffffffffffffffff1681526020019081526020016000205482611db890919063ffffffff16565b60008084815260200190815260200160002060008c73ffffffffffffffffffffffffffffffffffffffff1673ffffffffffffffffffffffffffffffffffffffff168152602001908152602001600020819055505050806001019050610d20565b508673ffffffffffffffffffffffffffffffffffffffff168873ffffffffffffffffffffffffffffffffffffffff163373ffffffffffffffffffffffffffffffffffffffff167f4a39dc06d4c0dbc64b70af90fd698a233a518aa5d07e595d983b8c0526c8f7fb898989896040518080602001806020018381038352878782818152602001925060200280828437600081840152601f19601f8201169050808301925050508381038252858582818152602001925060200280828437600081840152601f19601f820116905080830192505050965050505050505060405180910390a4610fd28773ffffffffffffffffffffffffffffffffffffffff16611dd2565b156110ac576110ab338989898980806020026020016040519081016040528093929190818152602001838360200280828437600081840152601f19601f82011690508083019250505050505050888880806020026020016040519081016040528093929190818152602001838360200280828437600081840152601f19601f8201169050808301925050505050505087878080601f016020809104026020016040519081016040528093929190818152602001838380828437600081840152601f19601f82011690508083019250505050505050611de5565b5b5050505050505050565b60608282905085859050146110ca57600080fd5b6060858590506040519080825280602002602001820160405280156110fe5781602001602082028038833980820191505090505b50905060008090505b868690508110156111bf5760008086868481811061112157fe5b905060200201358152602001908152602001600020600088888481811061114457fe5b9050602002013573ffffffffffffffffffffffffffffffffffffffff1673ffffffffffffffffffffffffffffffffffffffff1673ffffffffffffffffffffffffffffffffffffffff168152602001908152602001600020548282815181106111a857fe5b602002602001018181525050806001019050611107565b5080915050949350505050565b8060016112386003600084815260200190815260200160002060003373ffffffffffffffffffffffffffffffffffffffff1673ffffffffffffffffffffffffffffffffffffffff16815260200190815260200160002060009054906101000a900460ff1660ff16612076565b60ff16101561124657600080fd5b817f6bb7ff708619ba0610cba295a58592e0451dee2622938c8755667688daf3529b858560405180806020018281038252848482818152602001925080828437600081840152601f19601f820116905080830192505050935050505060405180910390a250505050565b80600160003373ffffffffffffffffffffffffffffffffffffffff1673ffffffffffffffffffffffffffffffffffffffff16815260200190815260200160002060008473ffffffffffffffffffffffffffffffffffffffff1673ffffffffffffffffffffffffffffffffffffffff16815260200190815260200160002060006101000a81548160ff0219169083151502179055508173ffffffffffffffffffffffffffffffffffffffff163373ffffffffffffffffffffffffffffffffffffffff167f17307eab39ab6107e8899845ad3d59bd9653f200f220920489ca2b5937696c3183604051808215151515815260200191505060405180910390a35050565b60025481565b8460036114236003600084815260200190815260200160002060003373ffffffffffffffffffffffffffffffffffffffff1673ffffffffffffffffffffffffffffffffffffffff16815260200190815260200160002060009054906101000a900460ff1660ff16612076565b60ff16101561143157600080fd5b60008090505b8585905081101561160f57600086868381811061145057fe5b9050602002013573ffffffffffffffffffffffffffffffffffffffff169050600085858481811061147d57fe5b9050602002013590506114e86000808b815260200190815260200160002060008473ffffffffffffffffffffffffffffffffffffffff1673ffffffffffffffffffffffffffffffffffffffff1681526020019081526020016000205482611db890919063ffffffff16565b6000808b815260200190815260200160002060008473ffffffffffffffffffffffffffffffffffffffff1673ffffffffffffffffffffffffffffffffffffffff168152602001908152602001600020819055508173ffffffffffffffffffffffffffffffffffffffff16600073ffffffffffffffffffffffffffffffffffffffff163373ffffffffffffffffffffffffffffffffffffffff167fc3d58168c5ae7397731d063d5bbf3d657854427343f4c083240f7aacaa2d0f628c85604051808381526020018281526020019250505060405180910390a46115df8273ffffffffffffffffffffffffffffffffffffffff16611dd2565b15611602576116013333848c85604051806020016040528060008152506120db565b5b5050806001019050611437565b50505050505050565b6000600160008473ffffffffffffffffffffffffffffffffffffffff1673ffffffffffffffffffffffffffffffffffffffff16815260200190815260200160002060008373ffffffffffffffffffffffffffffffffffffffff1673ffffffffffffffffffffffffffffffffffffffff16815260200190815260200160002060009054906101000a900460ff16905092915050565b600073ffffffffffffffffffffffffffffffffffffffff168573ffffffffffffffffffffffffffffffffffffffff16141561174f576040517f08c379a00000000000000000000000000000000000000000000000000000000081526004018080602001828103825260158152602001807f5f746f206d757374206265206e6f6e2d7a65726f2e000000000000000000000081525060200191505060405180910390fd5b3373ffffffffffffffffffffffffffffffffffffffff168673ffffffffffffffffffffffffffffffffffffffff161480611816575060011515600160008873ffffffffffffffffffffffffffffffffffffffff1673ffffffffffffffffffffffffffffffffffffffff16815260200190815260200160002060003373ffffffffffffffffffffffffffffffffffffffff1673ffffffffffffffffffffffffffffffffffffffff16815260200190815260200160002060009054906101000a900460ff161515145b61186b576040517f08c379a000000000000000000000000000000000000000000000000000000000815260040180806020018281038252602f815260200180612310602f913960400191505060405180910390fd5b6118cd8360008087815260200190815260200160002060008973ffffffffffffffffffffffffffffffffffffffff1673ffffffffffffffffffffffffffffffffffffffff16815260200190815260200160002054611da190919063ffffffff16565b60008086815260200190815260200160002060008873ffffffffffffffffffffffffffffffffffffffff1673ffffffffffffffffffffffffffffffffffffffff1681526020019081526020016000208190555061198260008086815260200190815260200160002060008773ffffffffffffffffffffffffffffffffffffffff1673ffffffffffffffffffffffffffffffffffffffff1681526020019081526020016000205484611db890919063ffffffff16565b60008086815260200190815260200160002060008773ffffffffffffffffffffffffffffffffffffffff1673ffffffffffffffffffffffffffffffffffffffff168152602001908152602001600020819055508473ffffffffffffffffffffffffffffffffffffffff168673ffffffffffffffffffffffffffffffffffffffff163373ffffffffffffffffffffffffffffffffffffffff167fc3d58168c5ae7397731d063d5bbf3d657854427343f4c083240f7aacaa2d0f628787604051808381526020018281526020019250505060405180910390a4611a788573ffffffffffffffffffffffffffffffffffffffff16611dd2565b15611ad057611acf338787878787878080601f016020809104026020016040519081016040528093929190818152602001838380828437600081840152601f19601f820116905080830192505050505050506120db565b5b505050505050565b8460ff166002611b476003600084815260200190815260200160002060003373ffffffffffffffffffffffffffffffffffffffff1673ffffffffffffffffffffffffffffffffffffffff16815260200190815260200160002060009054906101000a900460ff1660ff16612076565b60ff161015611b5557600080fd5b828290508585905014611b6757600080fd5b60008090505b85859050811015611ce757838382818110611b8457fe5b9050602002013560ff16600360008960ff1681526020019081526020016000206000888885818110611bb257fe5b9050602002013573ffffffffffffffffffffffffffffffffffffffff1673ffffffffffffffffffffffffffffffffffffffff1673ffffffffffffffffffffffffffffffffffffffff16815260200190815260200160002060006101000a81548160ff021916908360ff1602179055507f671735d12e3f36346cd7bd90c76122d46c8b66c4b0a01e1a9f1f6709beca8fbf87878784818110611c4f57fe5b9050602002013573ffffffffffffffffffffffffffffffffffffffff16868685818110611c7857fe5b9050602002013560ff16604051808460ff1681526020018373ffffffffffffffffffffffffffffffffffffffff1673ffffffffffffffffffffffffffffffffffffffff1681526020018260ff1660ff168152602001935050505060405180910390a18080600101915050611b6d565b50505050505050565b60006301ffc9a760e01b7bffffffffffffffffffffffffffffffffffffffffffffffffffffffff1916827bffffffffffffffffffffffffffffffffffffffffffffffffffffffff19161480611d89575063d9b67a2660e01b7bffffffffffffffffffffffffffffffffffffffffffffffffffffffff1916827bffffffffffffffffffffffffffffffffffffffffffffffffffffffff1916145b15611d975760019050611d9c565b600090505b919050565b600082821115611dad57fe5b818303905092915050565b6000818301905082811015611dc957fe5b80905092915050565b600080823b905060008111915050919050565b63bc197c8160e01b7bffffffffffffffffffffffffffffffffffffffffffffffffffffffff19168473ffffffffffffffffffffffffffffffffffffffff1663bc197c8188888787876040518663ffffffff1660e01b8152600401808673ffffffffffffffffffffffffffffffffffffffff1673ffffffffffffffffffffffffffffffffffffffff1681526020018573ffffffffffffffffffffffffffffffffffffffff1673ffffffffffffffffffffffffffffffffffffffff168152602001806020018060200180602001848103845287818151815260200191508051906020019060200280838360005b83811015611eeb578082015181840152602081019050611ed0565b50505050905001848103835286818151815260200191508051906020019060200280838360005b83811015611f2d578082015181840152602081019050611f12565b50505050905001848103825285818151815260200191508051906020019080838360005b83811015611f6c578082015181840152602081019050611f51565b50505050905090810190601f168015611f995780820380516001836020036101000a031916815260200191505b5098505050505050505050602060405180830381600087803b158015611fbe57600080fd5b505af1158015611fd2573d6000803e3d6000fd5b505050506040513d6020811015611fe857600080fd5b81019080805190602001909291905050507bffffffffffffffffffffffffffffffffffffffffffffffffffffffff19161461206e576040517f08c379a000000000000000000000000000000000000000000000000000000000815260040180806020018281038252603e81526020018061233f603e913960400191505060405180910390fd5b505050505050565b60008082141561208557600080fd5b60008290506000608090505b60018160ff16106120d45760008160ff1660018360ff166001901b03901b8316146120c55780830192508060ff1682901c91505b60018160ff16901c9050612091565b5050919050565b63f23a6e6160e01b7bffffffffffffffffffffffffffffffffffffffffffffffffffffffff19168473ffffffffffffffffffffffffffffffffffffffff1663f23a6e6188888787876040518663ffffffff1660e01b8152600401808673ffffffffffffffffffffffffffffffffffffffff1673ffffffffffffffffffffffffffffffffffffffff1681526020018573ffffffffffffffffffffffffffffffffffffffff1673ffffffffffffffffffffffffffffffffffffffff16815260200184815260200183815260200180602001828103825283818151815260200191508051906020019080838360005b838110156121e25780820151818401526020810190506121c7565b50505050905090810190601f16801561220f5780820380516001836020036101000a031916815260200191505b509650505050505050602060405180830381600087803b15801561223257600080fd5b505af1158015612246573d6000803e3d6000fd5b505050506040513d602081101561225c57600080fd5b81019080805190602001909291905050507bffffffffffffffffffffffffffffffffffffffffffffffffffffffff1916146122e2576040517f08c379a00000000000000000000000000000000000000000000000000000000081526004018080602001828103825260398152602001806123a66039913960400191505060405180910390fd5b50505050505056fe64657374696e6174696f6e2061646472657373206d757374206265206e6f6e2d7a65726f2e4e656564206f70657261746f7220617070726f76616c20666f7220337264207061727479207472616e73666572732e636f6e74726163742072657475726e656420616e20756e6b6e6f776e2076616c75652066726f6d206f6e45524331313535426174636852656365697665645f69647320616e64205f76616c756573206172726179206c656e676874206d757374206d617463682e636f6e74726163742072657475726e656420616e20756e6b6e6f776e2076616c75652066726f6d206f6e455243313135355265636569766564a165627a7a72305820e19b37e542a1c9ca693c895603877d3c01532fca5058bce733686aa67d07ecaa0029",
  "source": "pragma solidity ^0.5.3;\r\nimport \"./ERC1155.sol\";\r\nimport {Bits} from  \"./Util/Bits.sol\";\r\n\r\n/* \r\nA Token is created for every SKU. The supply can be equals to the production/order amount. Every time a shipment is sent out, mint a new token. \r\nThis contract is an edited duplicate of ERC1155Mintable.sol\r\n*/\r\ncontract SKUToken is ERC1155 {\r\n\r\n    bytes4 constant private INTERFACE_SIGNATURE_URI = 0x0e89341c;\r\n\r\n    uint256 public nonce;\r\n\r\n    using Bits for uint8;\r\n\r\n    event PermissionSet(uint256 _id, address _stakeholders, uint8 _permissions);\r\n\r\n    //8 - 1000\r\n    modifier creatorOnly (uint256 _id) {\r\n        require(accessControlList[_id][msg.sender].highestBitSet() >= 3);\r\n        _;\r\n    }\r\n\r\n    //4 - 100\r\n    modifier ownerOnly (uint256 _id) {\r\n        require(accessControlList[_id][msg.sender].highestBitSet() >= 2);\r\n        _;\r\n    }\r\n\r\n    //2 - 10\r\n    modifier writeOnly (uint256 _id) {\r\n        require(accessControlList[_id][msg.sender].highestBitSet() >= 1);\r\n        _;\r\n    }\r\n\r\n    //1 - 1\r\n    modifier readOnly (uint256 _id) {\r\n        require(accessControlList[_id][msg.sender].highestBitSet() >= 0);\r\n        _;\r\n    }\r\n\r\n    // Read Permission is rightmost bit, left of it is Write and left of that is Owner\r\n    mapping (uint256 => mapping(address => uint8)) accessControlList;\r\n\r\n    function supportsInterface(bytes4 _interfaceId)\r\n    public\r\n    view\r\n    returns (bool) {\r\n        if (_interfaceId == INTERFACE_SIGNATURE_URI) {\r\n            return true;\r\n        } else {\r\n            return super.supportsInterface(_interfaceId);\r\n        }\r\n    }\r\n\r\n    // Creates a new token type and assings _initialSupply to minter\r\n    function create(uint256 _initialSupply, string calldata _uri) external returns(uint256 _id) {\r\n\r\n        _id = ++nonce;\r\n        accessControlList[_id][msg.sender] = uint8(8);\r\n        balances[_id][msg.sender] = _initialSupply;\r\n\r\n        // Transfer event with mint semantic\r\n        emit TransferSingle(msg.sender, address(0x0), msg.sender, _id, _initialSupply);\r\n\r\n        if (bytes(_uri).length > 0)\r\n            emit URI(_uri, _id);\r\n    }\r\n\r\n    // Batch mint tokens. Assign directly to _to[].\r\n    function mint(uint256 _id, address[] calldata _to, uint256[] calldata _quantities) external creatorOnly(_id) {\r\n\r\n        for (uint256 i = 0; i < _to.length; ++i) {\r\n\r\n            address to = _to[i];\r\n            uint256 quantity = _quantities[i];\r\n\r\n            // Grant the items to the caller\r\n            balances[_id][to] = quantity.add(balances[_id][to]);\r\n\r\n            // Emit the Transfer/Mint event.\r\n            // the 0x0 source address implies a mint\r\n            // It will also provide the circulating supply info.\r\n            emit TransferSingle(msg.sender, address(0x0), to, _id, quantity);\r\n\r\n            if (to.isContract()) {\r\n                _doSafeTransferAcceptanceCheck(msg.sender, msg.sender, to, _id, quantity, '');\r\n            }\r\n        }\r\n    }\r\n\r\n    function setURI(string calldata _uri, uint256 _id) external writeOnly(_id) {\r\n        emit URI(_uri, _id);\r\n    }\r\n\r\n    function setPermissions(uint8 _id, address[] calldata _stakeholders, uint8[] calldata _permissions) external ownerOnly(_id) {\r\n        require(_stakeholders.length == _permissions.length);\r\n        for (uint i = 0; i < _stakeholders.length; i++){\r\n            accessControlList[_id][_stakeholders[i]] = _permissions[i];\r\n            emit PermissionSet(_id, _stakeholders[i], _permissions[i]);\r\n        }\r\n    } \r\n}",
  "sourcePath": "C:/Users/phangjunyu/desktop/fyp/solidity/contracts/SKUToken.sol",
  "compiler": {
    "name": "solc",
    "version": "0.5.8+commit.23d335f2.Emscripten.clang"
  },
  "schemaVersion": "3.0.16",
  "updatedAt": "2019-10-07T07:12:17.954Z",
  "devdoc": {
    "methods": {
      "balanceOf(address,uint256)": {
        "params": {
          "_id": "ID of the Token\r",
          "_owner": "The address of the token holder\r"
        },
        "return": "The _owner's balance of the Token type requested\r"
      },
      "balanceOfBatch(address[],uint256[])": {
        "params": {
          "_ids": "ID of the Tokens\r",
          "_owners": "The addresses of the token holders\r"
        },
        "return": "The _owner's balance of the Token types requested (i.e. balance for each (owner, id) pair)\r"
      },
      "isApprovedForAll(address,address)": {
        "params": {
          "_operator": "Address of authorized operator\r",
          "_owner": "The owner of the Tokens\r"
        },
        "return": "True if the operator is approved, false if not\r"
      },
      "safeBatchTransferFrom(address,address,uint256[],uint256[],bytes)": {
        "details": "Caller must be approved to manage the tokens being transferred out of the `_from` account (see \"Approval\" section of the standard).\r MUST revert if `_to` is the zero address.\r MUST revert if length of `_ids` is not the same as length of `_values`.\r MUST revert if any of the balance(s) of the holder(s) for token(s) in `_ids` is lower than the respective amount(s) in `_values` sent to the recipient.\r MUST revert on any other error.\r MUST emit `TransferSingle` or `TransferBatch` event(s) such that all the balance changes are reflected (see \"Safe Transfer Rules\" section of the standard).\r Balance changes and events MUST follow the ordering of the arrays (_ids[0]/_values[0] before _ids[1]/_values[1], etc).\r After the above conditions for the transfer(s) in the batch are met, this function MUST check if `_to` is a smart contract (e.g. code size > 0). If so, it MUST call the relevant `ERC1155TokenReceiver` hook(s) on `_to` and act appropriately (see \"Safe Transfer Rules\" section of the standard).\r",
        "params": {
          "_data": "Additional data with no specified format, MUST be sent unaltered in call to the `ERC1155TokenReceiver` hook(s) on `_to`\r",
          "_from": "Source address\r",
          "_ids": "IDs of each token type (order and length must match _values array)\r",
          "_to": "Target address\r",
          "_values": "Transfer amounts per token type (order and length must match _ids array)\r"
        }
      },
      "safeTransferFrom(address,address,uint256,uint256,bytes)": {
        "details": "Caller must be approved to manage the tokens being transferred out of the `_from` account (see \"Approval\" section of the standard).\r MUST revert if `_to` is the zero address.\r MUST revert if balance of holder for token `_id` is lower than the `_value` sent.\r MUST revert on any other error.\r MUST emit the `TransferSingle` event to reflect the balance change (see \"Safe Transfer Rules\" section of the standard).\r After the above conditions are met, this function MUST check if `_to` is a smart contract (e.g. code size > 0). If so, it MUST call `onERC1155Received` on `_to` and act appropriately (see \"Safe Transfer Rules\" section of the standard).\r",
        "params": {
          "_data": "Additional data with no specified format, MUST be sent unaltered in call to `onERC1155Received` on `_to`\r",
          "_from": "Source address\r",
          "_id": "ID of the token type\r",
          "_to": "Target address\r",
          "_value": "Transfer amount\r"
        }
      },
      "setApprovalForAll(address,bool)": {
        "details": "MUST emit the ApprovalForAll event on success.\r",
        "params": {
          "_approved": "True if the operator is approved, false to revoke approval\r",
          "_operator": "Address to add to the set of authorized operators\r"
        }
      }
    }
  },
  "userdoc": {
    "methods": {
      "balanceOf(address,uint256)": {
        "notice": "Get the balance of an account's Tokens.\r"
      },
      "balanceOfBatch(address[],uint256[])": {
        "notice": "Get the balance of multiple account/token pairs\r"
      },
      "isApprovedForAll(address,address)": {
        "notice": "Queries the approval status of an operator for a given owner.\r"
      },
      "safeBatchTransferFrom(address,address,uint256[],uint256[],bytes)": {
        "notice": "Transfers `_values` amount(s) of `_ids` from the `_from` address to the `_to` address specified (with safety call).\r"
      },
      "safeTransferFrom(address,address,uint256,uint256,bytes)": {
        "notice": "Transfers `_value` amount of an `_id` from the `_from` address to the `_to` address specified (with safety call).\r"
      },
      "setApprovalForAll(address,bool)": {
        "notice": "Enable or disable approval for a third party (\"operator\") to manage all of the caller's tokens.\r"
      }
    }
  }
}